{
  "_format": "hh-sol-artifact-1",
  "contractName": "CommunityArtCollection",
  "sourceName": "contracts/CommunityArtCollection.sol",
  "abi": [
    {
      "inputs": [
        {
          "internalType": "string",
          "name": "_tokenURI",
          "type": "string"
        }
      ],
      "stateMutability": "nonpayable",
      "type": "constructor"
    },
    {
      "anonymous": false,
      "inputs": [
        {
          "indexed": true,
          "internalType": "address",
          "name": "owner",
          "type": "address"
        },
        {
          "indexed": true,
          "internalType": "address",
          "name": "approved",
          "type": "address"
        },
        {
          "indexed": true,
          "internalType": "uint256",
          "name": "tokenId",
          "type": "uint256"
        }
      ],
      "name": "Approval",
      "type": "event"
    },
    {
      "anonymous": false,
      "inputs": [
        {
          "indexed": true,
          "internalType": "address",
          "name": "owner",
          "type": "address"
        },
        {
          "indexed": true,
          "internalType": "address",
          "name": "operator",
          "type": "address"
        },
        {
          "indexed": false,
          "internalType": "bool",
          "name": "approved",
          "type": "bool"
        }
      ],
      "name": "ApprovalForAll",
      "type": "event"
    },
    {
      "anonymous": false,
      "inputs": [
        {
          "indexed": true,
          "internalType": "address",
          "name": "previousOwner",
          "type": "address"
        },
        {
          "indexed": true,
          "internalType": "address",
          "name": "newOwner",
          "type": "address"
        }
      ],
      "name": "OwnershipTransferred",
      "type": "event"
    },
    {
      "anonymous": false,
      "inputs": [
        {
          "indexed": false,
          "internalType": "address",
          "name": "account",
          "type": "address"
        }
      ],
      "name": "Paused",
      "type": "event"
    },
    {
      "anonymous": false,
      "inputs": [
        {
          "indexed": true,
          "internalType": "address",
          "name": "from",
          "type": "address"
        },
        {
          "indexed": true,
          "internalType": "address",
          "name": "to",
          "type": "address"
        },
        {
          "indexed": true,
          "internalType": "uint256",
          "name": "tokenId",
          "type": "uint256"
        }
      ],
      "name": "Transfer",
      "type": "event"
    },
    {
      "anonymous": false,
      "inputs": [
        {
          "indexed": false,
          "internalType": "address",
          "name": "account",
          "type": "address"
        }
      ],
      "name": "Unpaused",
      "type": "event"
    },
    {
      "inputs": [],
      "name": "_artIds",
      "outputs": [
        {
          "internalType": "uint256",
          "name": "_value",
          "type": "uint256"
        }
      ],
      "stateMutability": "view",
      "type": "function"
    },
    {
      "inputs": [
        {
          "internalType": "address",
          "name": "to",
          "type": "address"
        },
        {
          "internalType": "uint256",
          "name": "tokenId",
          "type": "uint256"
        }
      ],
      "name": "approve",
      "outputs": [],
      "stateMutability": "nonpayable",
      "type": "function"
    },
    {
      "inputs": [
        {
          "internalType": "uint256",
          "name": "_artId",
          "type": "uint256"
        }
      ],
      "name": "artistDonation",
      "outputs": [],
      "stateMutability": "payable",
      "type": "function"
    },
    {
      "inputs": [
        {
          "internalType": "uint256",
          "name": "_artId",
          "type": "uint256"
        },
        {
          "internalType": "address",
          "name": "_tokenAddress",
          "type": "address"
        },
        {
          "internalType": "uint256",
          "name": "_amount",
          "type": "uint256"
        }
      ],
      "name": "artistTokenDonation",
      "outputs": [],
      "stateMutability": "nonpayable",
      "type": "function"
    },
    {
      "inputs": [
        {
          "internalType": "address",
          "name": "owner",
          "type": "address"
        }
      ],
      "name": "balanceOf",
      "outputs": [
        {
          "internalType": "uint256",
          "name": "",
          "type": "uint256"
        }
      ],
      "stateMutability": "view",
      "type": "function"
    },
    {
      "inputs": [
        {
          "internalType": "uint256",
          "name": "tokenId",
          "type": "uint256"
        }
      ],
      "name": "getApproved",
      "outputs": [
        {
          "internalType": "address",
          "name": "",
          "type": "address"
        }
      ],
      "stateMutability": "view",
      "type": "function"
    },
    {
      "inputs": [
        {
          "internalType": "uint256",
          "name": "_artId",
          "type": "uint256"
        }
      ],
      "name": "getArtPiece",
      "outputs": [
        {
          "components": [
            {
              "internalType": "uint256",
              "name": "id",
              "type": "uint256"
            },
            {
              "internalType": "uint256",
              "name": "mintDate",
              "type": "uint256"
            },
            {
              "internalType": "address",
              "name": "winner",
              "type": "address"
            },
            {
              "internalType": "address",
              "name": "artistDonation",
              "type": "address"
            },
            {
              "internalType": "uint256",
              "name": "donationCount",
              "type": "uint256"
            }
          ],
          "internalType": "struct CommunityArtCollection.Art",
          "name": "",
          "type": "tuple"
        }
      ],
      "stateMutability": "view",
      "type": "function"
    },
    {
      "inputs": [],
      "name": "getCollection",
      "outputs": [
        {
          "components": [
            {
              "internalType": "uint256",
              "name": "id",
              "type": "uint256"
            },
            {
              "internalType": "uint256",
              "name": "mintDate",
              "type": "uint256"
            },
            {
              "internalType": "address",
              "name": "winner",
              "type": "address"
            },
            {
              "internalType": "address",
              "name": "artistDonation",
              "type": "address"
            },
            {
              "internalType": "uint256",
              "name": "donationCount",
              "type": "uint256"
            }
          ],
          "internalType": "struct CommunityArtCollection.Art[]",
          "name": "",
          "type": "tuple[]"
        }
      ],
      "stateMutability": "view",
      "type": "function"
    },
    {
      "inputs": [],
      "name": "getWinners",
      "outputs": [
        {
          "internalType": "address[]",
          "name": "",
          "type": "address[]"
        }
      ],
      "stateMutability": "view",
      "type": "function"
    },
    {
      "inputs": [
        {
          "internalType": "address",
          "name": "owner",
          "type": "address"
        },
        {
          "internalType": "address",
          "name": "operator",
          "type": "address"
        }
      ],
      "name": "isApprovedForAll",
      "outputs": [
        {
          "internalType": "bool",
          "name": "",
          "type": "bool"
        }
      ],
      "stateMutability": "view",
      "type": "function"
    },
    {
      "inputs": [],
      "name": "name",
      "outputs": [
        {
          "internalType": "string",
          "name": "",
          "type": "string"
        }
      ],
      "stateMutability": "view",
      "type": "function"
    },
    {
      "inputs": [],
      "name": "owner",
      "outputs": [
        {
          "internalType": "address",
          "name": "",
          "type": "address"
        }
      ],
      "stateMutability": "view",
      "type": "function"
    },
    {
      "inputs": [
        {
          "internalType": "uint256",
          "name": "tokenId",
          "type": "uint256"
        }
      ],
      "name": "ownerOf",
      "outputs": [
        {
          "internalType": "address",
          "name": "",
          "type": "address"
        }
      ],
      "stateMutability": "view",
      "type": "function"
    },
    {
      "inputs": [],
      "name": "pauseMinting",
      "outputs": [],
      "stateMutability": "nonpayable",
      "type": "function"
    },
    {
      "inputs": [],
      "name": "paused",
      "outputs": [
        {
          "internalType": "bool",
          "name": "",
          "type": "bool"
        }
      ],
      "stateMutability": "view",
      "type": "function"
    },
    {
      "inputs": [],
      "name": "renounceOwnership",
      "outputs": [],
      "stateMutability": "nonpayable",
      "type": "function"
    },
    {
      "inputs": [
        {
          "internalType": "address",
          "name": "_winner",
          "type": "address"
        },
        {
          "internalType": "address",
          "name": "_artist",
          "type": "address"
        }
      ],
      "name": "reward",
      "outputs": [],
      "stateMutability": "nonpayable",
      "type": "function"
    },
    {
      "inputs": [
        {
          "internalType": "address",
          "name": "from",
          "type": "address"
        },
        {
          "internalType": "address",
          "name": "to",
          "type": "address"
        },
        {
          "internalType": "uint256",
          "name": "tokenId",
          "type": "uint256"
        }
      ],
      "name": "safeTransferFrom",
      "outputs": [],
      "stateMutability": "nonpayable",
      "type": "function"
    },
    {
      "inputs": [
        {
          "internalType": "address",
          "name": "from",
          "type": "address"
        },
        {
          "internalType": "address",
          "name": "to",
          "type": "address"
        },
        {
          "internalType": "uint256",
          "name": "tokenId",
          "type": "uint256"
        },
        {
          "internalType": "bytes",
          "name": "_data",
          "type": "bytes"
        }
      ],
      "name": "safeTransferFrom",
      "outputs": [],
      "stateMutability": "nonpayable",
      "type": "function"
    },
    {
      "inputs": [
        {
          "internalType": "address",
          "name": "operator",
          "type": "address"
        },
        {
          "internalType": "bool",
          "name": "approved",
          "type": "bool"
        }
      ],
      "name": "setApprovalForAll",
      "outputs": [],
      "stateMutability": "nonpayable",
      "type": "function"
    },
    {
      "inputs": [
        {
          "internalType": "string",
          "name": "baseURI",
          "type": "string"
        }
      ],
      "name": "setBaseURI",
      "outputs": [],
      "stateMutability": "nonpayable",
      "type": "function"
    },
    {
      "inputs": [
        {
          "internalType": "bytes4",
          "name": "interfaceId",
          "type": "bytes4"
        }
      ],
      "name": "supportsInterface",
      "outputs": [
        {
          "internalType": "bool",
          "name": "",
          "type": "bool"
        }
      ],
      "stateMutability": "view",
      "type": "function"
    },
    {
      "inputs": [],
      "name": "symbol",
      "outputs": [
        {
          "internalType": "string",
          "name": "",
          "type": "string"
        }
      ],
      "stateMutability": "view",
      "type": "function"
    },
    {
      "inputs": [
        {
          "internalType": "uint256",
          "name": "index",
          "type": "uint256"
        }
      ],
      "name": "tokenByIndex",
      "outputs": [
        {
          "internalType": "uint256",
          "name": "",
          "type": "uint256"
        }
      ],
      "stateMutability": "view",
      "type": "function"
    },
    {
      "inputs": [
        {
          "internalType": "address",
          "name": "owner",
          "type": "address"
        },
        {
          "internalType": "uint256",
          "name": "index",
          "type": "uint256"
        }
      ],
      "name": "tokenOfOwnerByIndex",
      "outputs": [
        {
          "internalType": "uint256",
          "name": "",
          "type": "uint256"
        }
      ],
      "stateMutability": "view",
      "type": "function"
    },
    {
      "inputs": [
        {
          "internalType": "uint256",
          "name": "tokenId",
          "type": "uint256"
        }
      ],
      "name": "tokenURI",
      "outputs": [
        {
          "internalType": "string",
          "name": "",
          "type": "string"
        }
      ],
      "stateMutability": "view",
      "type": "function"
    },
    {
      "inputs": [],
      "name": "totalSupply",
      "outputs": [
        {
          "internalType": "uint256",
          "name": "",
          "type": "uint256"
        }
      ],
      "stateMutability": "view",
      "type": "function"
    },
    {
      "inputs": [
        {
          "internalType": "address",
          "name": "from",
          "type": "address"
        },
        {
          "internalType": "address",
          "name": "to",
          "type": "address"
        },
        {
          "internalType": "uint256",
          "name": "tokenId",
          "type": "uint256"
        }
      ],
      "name": "transferFrom",
      "outputs": [],
      "stateMutability": "nonpayable",
      "type": "function"
    },
    {
      "inputs": [
        {
          "internalType": "address",
          "name": "newOwner",
          "type": "address"
        }
      ],
      "name": "transferOwnership",
      "outputs": [],
      "stateMutability": "nonpayable",
      "type": "function"
    },
    {
      "inputs": [],
      "name": "unpauseMinting",
      "outputs": [],
      "stateMutability": "nonpayable",
      "type": "function"
    }
  ],
  "bytecode": "0x60806040523480156200001157600080fd5b506040516200502b3803806200502b833981810160405281019062000037919062000312565b60405180606001604052806025815260200162005006602591396040518060400160405280600581526020017f444443414300000000000000000000000000000000000000000000000000000081525081600090805190602001906200009f929190620001e4565b508060019080519060200190620000b8929190620001e4565b505050620000db620000cf6200011660201b60201c565b6200011e60201b60201c565b6000600a60146101000a81548160ff02191690831515021790555080600c90805190602001906200010e929190620001e4565b5050620004e7565b600033905090565b6000600a60009054906101000a900473ffffffffffffffffffffffffffffffffffffffff16905081600a60006101000a81548173ffffffffffffffffffffffffffffffffffffffff021916908373ffffffffffffffffffffffffffffffffffffffff1602179055508173ffffffffffffffffffffffffffffffffffffffff168173ffffffffffffffffffffffffffffffffffffffff167f8be0079c531659141344cd1fd0a4f28419497f9722a3daafe3b4186f6b6457e060405160405180910390a35050565b828054620001f290620003f8565b90600052602060002090601f01602090048101928262000216576000855562000262565b82601f106200023157805160ff191683800117855562000262565b8280016001018555821562000262579182015b828111156200026157825182559160200191906001019062000244565b5b50905062000271919062000275565b5090565b5b808211156200029057600081600090555060010162000276565b5090565b6000620002ab620002a5846200038c565b62000363565b905082815260208101848484011115620002ca57620002c9620004c7565b5b620002d7848285620003c2565b509392505050565b600082601f830112620002f757620002f6620004c2565b5b81516200030984826020860162000294565b91505092915050565b6000602082840312156200032b576200032a620004d1565b5b600082015167ffffffffffffffff8111156200034c576200034b620004cc565b5b6200035a84828501620002df565b91505092915050565b60006200036f62000382565b90506200037d82826200042e565b919050565b6000604051905090565b600067ffffffffffffffff821115620003aa57620003a962000493565b5b620003b582620004d6565b9050602081019050919050565b60005b83811015620003e2578082015181840152602081019050620003c5565b83811115620003f2576000848401525b50505050565b600060028204905060018216806200041157607f821691505b6020821081141562000428576200042762000464565b5b50919050565b6200043982620004d6565b810181811067ffffffffffffffff821117156200045b576200045a62000493565b5b80604052505050565b7f4e487b7100000000000000000000000000000000000000000000000000000000600052602260045260246000fd5b7f4e487b7100000000000000000000000000000000000000000000000000000000600052604160045260246000fd5b600080fd5b600080fd5b600080fd5b600080fd5b6000601f19601f8301169050919050565b614b0f80620004f76000396000f3fe6080604052600436106101cd5760003560e01c80635c975abb116100f7578063a22cb46511610095578063da8fbf2a11610064578063da8fbf2a14610679578063df15c37e14610690578063e985e9c5146106bb578063f2fde38b146106f8576101cd565b8063a22cb465146105d3578063ae200322146105fc578063b88d4fde14610613578063c87b56dd1461063c576101cd565b8063715018a6116100d1578063715018a61461053d5780638da5cb5b1461055457806391dc1b051461057f57806395d89b41146105a8576101cd565b80635c975abb146104985780636352211e146104c357806370a0823114610500576101cd565b80632e03e4681161016f57806342842e0e1161013e57806342842e0e146103e05780634d5b0081146104095780634f6ccce71461043257806355f804b31461046f576101cd565b80632e03e468146103105780632f745c591461034d5780633e1e5c891461038a5780634251921e146103b5576101cd565b8063081812fc116101ab578063081812fc14610256578063095ea7b31461029357806318160ddd146102bc57806323b872dd146102e7576101cd565b806301ffc9a7146101d257806305b045981461020f57806306fdde031461022b575b600080fd5b3480156101de57600080fd5b506101f960048036038101906101f49190613465565b610721565b6040516102069190613cbe565b60405180910390f35b61022960048036038101906102249190613508565b610803565b005b34801561023757600080fd5b506102406108f2565b60405161024d9190613cd9565b60405180910390f35b34801561026257600080fd5b5061027d60048036038101906102789190613508565b610984565b60405161028a9190613bb3565b60405180910390f35b34801561029f57600080fd5b506102ba60048036038101906102b591906133f8565b610a09565b005b3480156102c857600080fd5b506102d1610b21565b6040516102de9190613fd6565b60405180910390f35b3480156102f357600080fd5b5061030e600480360381019061030991906132e2565b610b2e565b005b34801561031c57600080fd5b5061033760048036038101906103329190613508565b610b8e565b6040516103449190613fbb565b60405180910390f35b34801561035957600080fd5b50610374600480360381019061036f91906133f8565b610c85565b6040516103819190613fd6565b60405180910390f35b34801561039657600080fd5b5061039f610d2a565b6040516103ac9190613fd6565b60405180910390f35b3480156103c157600080fd5b506103ca610d36565b6040516103d79190613c9c565b60405180910390f35b3480156103ec57600080fd5b50610407600480360381019061040291906132e2565b610ed0565b005b34801561041557600080fd5b50610430600480360381019061042b91906132a2565b610ef0565b005b34801561043e57600080fd5b5061045960048036038101906104549190613508565b6110f1565b6040516104669190613fd6565b60405180910390f35b34801561047b57600080fd5b50610496600480360381019061049191906134bf565b611162565b005b3480156104a457600080fd5b506104ad6111f8565b6040516104ba9190613cbe565b60405180910390f35b3480156104cf57600080fd5b506104ea60048036038101906104e59190613508565b61120f565b6040516104f79190613bb3565b60405180910390f35b34801561050c57600080fd5b5061052760048036038101906105229190613275565b6112c1565b6040516105349190613fd6565b60405180910390f35b34801561054957600080fd5b50610552611379565b005b34801561056057600080fd5b50610569611401565b6040516105769190613bb3565b60405180910390f35b34801561058b57600080fd5b506105a660048036038101906105a19190613562565b61142b565b005b3480156105b457600080fd5b506105bd611710565b6040516105ca9190613cd9565b60405180910390f35b3480156105df57600080fd5b506105fa60048036038101906105f591906133b8565b6117a2565b005b34801561060857600080fd5b506106116117b8565b005b34801561061f57600080fd5b5061063a60048036038101906106359190613335565b61183e565b005b34801561064857600080fd5b50610663600480360381019061065e9190613508565b6118a0565b6040516106709190613cd9565b60405180910390f35b34801561068557600080fd5b5061068e6118da565b005b34801561069c57600080fd5b506106a5611960565b6040516106b29190613c7a565b60405180910390f35b3480156106c757600080fd5b506106e260048036038101906106dd91906132a2565b611a14565b6040516106ef9190613cbe565b60405180910390f35b34801561070457600080fd5b5061071f600480360381019061071a9190613275565b611aa8565b005b60007f80ac58cd000000000000000000000000000000000000000000000000000000007bffffffffffffffffffffffffffffffffffffffffffffffffffffffff1916827bffffffffffffffffffffffffffffffffffffffffffffffffffffffff191614806107ec57507f5b5e139f000000000000000000000000000000000000000000000000000000007bffffffffffffffffffffffffffffffffffffffffffffffffffffffff1916827bffffffffffffffffffffffffffffffffffffffffffffffffffffffff1916145b806107fc57506107fb82611ba0565b5b9050919050565b60003411610846576040517f08c379a000000000000000000000000000000000000000000000000000000000815260040161083d90613f3b565b60405180910390fd5b600d600082815260200190815260200160002060030160009054906101000a900473ffffffffffffffffffffffffffffffffffffffff1673ffffffffffffffffffffffffffffffffffffffff166108fc349081150290604051600060405180830381858888f193505050501580156108c2573d6000803e3d6000fd5b50600d600082815260200190815260200160002060040160008154809291906108ea90614301565b919050555050565b6060600080546109019061429e565b80601f016020809104026020016040519081016040528092919081815260200182805461092d9061429e565b801561097a5780601f1061094f5761010080835404028352916020019161097a565b820191906000526020600020905b81548152906001019060200180831161095d57829003601f168201915b5050505050905090565b600061098f82611c1a565b6109ce576040517f08c379a00000000000000000000000000000000000000000000000000000000081526004016109c590613efb565b60405180910390fd5b6004600083815260200190815260200160002060009054906101000a900473ffffffffffffffffffffffffffffffffffffffff169050919050565b6000610a148261120f565b90508073ffffffffffffffffffffffffffffffffffffffff168373ffffffffffffffffffffffffffffffffffffffff161415610a85576040517f08c379a0000000000000000000000000000000000000000000000000000000008152600401610a7c90613f5b565b60405180910390fd5b8073ffffffffffffffffffffffffffffffffffffffff16610aa4611c86565b73ffffffffffffffffffffffffffffffffffffffff161480610ad35750610ad281610acd611c86565b611a14565b5b610b12576040517f08c379a0000000000000000000000000000000000000000000000000000000008152600401610b0990613e7b565b60405180910390fd5b610b1c8383611c8e565b505050565b6000600880549050905090565b610b3f610b39611c86565b82611d47565b610b7e576040517f08c379a0000000000000000000000000000000000000000000000000000000008152600401610b7590613f7b565b60405180910390fd5b610b89838383611e25565b505050565b610b96613004565b600d60008381526020019081526020016000206040518060a001604052908160008201548152602001600182015481526020016002820160009054906101000a900473ffffffffffffffffffffffffffffffffffffffff1673ffffffffffffffffffffffffffffffffffffffff1673ffffffffffffffffffffffffffffffffffffffff1681526020016003820160009054906101000a900473ffffffffffffffffffffffffffffffffffffffff1673ffffffffffffffffffffffffffffffffffffffff1673ffffffffffffffffffffffffffffffffffffffff1681526020016004820154815250509050919050565b6000610c90836112c1565b8210610cd1576040517f08c379a0000000000000000000000000000000000000000000000000000000008152600401610cc890613d3b565b60405180910390fd5b600660008473ffffffffffffffffffffffffffffffffffffffff1673ffffffffffffffffffffffffffffffffffffffff168152602001908152602001600020600083815260200190815260200160002054905092915050565b600b8060000154905081565b60606000610d42610b21565b67ffffffffffffffff811115610d5b57610d5a614466565b5b604051908082528060200260200182016040528015610d9457816020015b610d81613004565b815260200190600190039081610d795790505b50905060005b610da2610b21565b811015610ec8576000600d60008381526020019081526020016000209050806040518060a001604052908160008201548152602001600182015481526020016002820160009054906101000a900473ffffffffffffffffffffffffffffffffffffffff1673ffffffffffffffffffffffffffffffffffffffff1673ffffffffffffffffffffffffffffffffffffffff1681526020016003820160009054906101000a900473ffffffffffffffffffffffffffffffffffffffff1673ffffffffffffffffffffffffffffffffffffffff1673ffffffffffffffffffffffffffffffffffffffff168152602001600482015481525050838381518110610ea957610ea8614437565b5b6020026020010181905250508080610ec090614301565b915050610d9a565b508091505090565b610eeb8383836040518060200160405280600081525061183e565b505050565b610ef86111f8565b15610f38576040517f08c379a0000000000000000000000000000000000000000000000000000000008152600401610f2f90613e5b565b60405180910390fd5b610f40611c86565b73ffffffffffffffffffffffffffffffffffffffff16610f5e611401565b73ffffffffffffffffffffffffffffffffffffffff1614610fb4576040517f08c379a0000000000000000000000000000000000000000000000000000000008152600401610fab90613f1b565b60405180910390fd5b6000610fc0600b61208c565b90506040518060a001604052808281526020014281526020018473ffffffffffffffffffffffffffffffffffffffff1681526020018373ffffffffffffffffffffffffffffffffffffffff1681526020016000815250600d6000838152602001908152602001600020600082015181600001556020820151816001015560408201518160020160006101000a81548173ffffffffffffffffffffffffffffffffffffffff021916908373ffffffffffffffffffffffffffffffffffffffff16021790555060608201518160030160006101000a81548173ffffffffffffffffffffffffffffffffffffffff021916908373ffffffffffffffffffffffffffffffffffffffff160217905550608082015181600401559050506110e2838261209a565b6110ec600b6120b8565b505050565b60006110fb610b21565b821061113c576040517f08c379a000000000000000000000000000000000000000000000000000000000815260040161113390613f9b565b60405180910390fd5b600882815481106111505761114f614437565b5b90600052602060002001549050919050565b61116a611c86565b73ffffffffffffffffffffffffffffffffffffffff16611188611401565b73ffffffffffffffffffffffffffffffffffffffff16146111de576040517f08c379a00000000000000000000000000000000000000000000000000000000081526004016111d590613f1b565b60405180910390fd5b80600c90805190602001906111f492919061305f565b5050565b6000600a60149054906101000a900460ff16905090565b6000806002600084815260200190815260200160002060009054906101000a900473ffffffffffffffffffffffffffffffffffffffff169050600073ffffffffffffffffffffffffffffffffffffffff168173ffffffffffffffffffffffffffffffffffffffff1614156112b8576040517f08c379a00000000000000000000000000000000000000000000000000000000081526004016112af90613ebb565b60405180910390fd5b80915050919050565b60008073ffffffffffffffffffffffffffffffffffffffff168273ffffffffffffffffffffffffffffffffffffffff161415611332576040517f08c379a000000000000000000000000000000000000000000000000000000000815260040161132990613e9b565b60405180910390fd5b600360008373ffffffffffffffffffffffffffffffffffffffff1673ffffffffffffffffffffffffffffffffffffffff168152602001908152602001600020549050919050565b611381611c86565b73ffffffffffffffffffffffffffffffffffffffff1661139f611401565b73ffffffffffffffffffffffffffffffffffffffff16146113f5576040517f08c379a00000000000000000000000000000000000000000000000000000000081526004016113ec90613f1b565b60405180910390fd5b6113ff60006120ce565b565b6000600a60009054906101000a900473ffffffffffffffffffffffffffffffffffffffff16905090565b6000811161146e576040517f08c379a000000000000000000000000000000000000000000000000000000000815260040161146590613f3b565b60405180910390fd5b808273ffffffffffffffffffffffffffffffffffffffff166370a08231611493611c86565b6040518263ffffffff1660e01b81526004016114af9190613bb3565b60206040518083038186803b1580156114c757600080fd5b505afa1580156114db573d6000803e3d6000fd5b505050506040513d601f19601f820116820180604052508101906114ff9190613535565b1161153f576040517f08c379a000000000000000000000000000000000000000000000000000000000815260040161153690613d1b565b60405180910390fd5b808273ffffffffffffffffffffffffffffffffffffffff1663dd62ed3e611564611c86565b306040518363ffffffff1660e01b8152600401611582929190613bce565b60206040518083038186803b15801561159a57600080fd5b505afa1580156115ae573d6000803e3d6000fd5b505050506040513d601f19601f820116820180604052508101906115d29190613535565b11611612576040517f08c379a000000000000000000000000000000000000000000000000000000000815260040161160990613e1b565b60405180910390fd5b8173ffffffffffffffffffffffffffffffffffffffff166323b872dd611636611c86565b600d600087815260200190815260200160002060030160009054906101000a900473ffffffffffffffffffffffffffffffffffffffff16846040518463ffffffff1660e01b815260040161168c93929190613bf7565b602060405180830381600087803b1580156116a657600080fd5b505af11580156116ba573d6000803e3d6000fd5b505050506040513d601f19601f820116820180604052508101906116de9190613438565b50600d6000848152602001908152602001600020600401600081548092919061170690614301565b9190505550505050565b60606001805461171f9061429e565b80601f016020809104026020016040519081016040528092919081815260200182805461174b9061429e565b80156117985780601f1061176d57610100808354040283529160200191611798565b820191906000526020600020905b81548152906001019060200180831161177b57829003601f168201915b5050505050905090565b6117b46117ad611c86565b8383612194565b5050565b6117c0611c86565b73ffffffffffffffffffffffffffffffffffffffff166117de611401565b73ffffffffffffffffffffffffffffffffffffffff1614611834576040517f08c379a000000000000000000000000000000000000000000000000000000000815260040161182b90613f1b565b60405180910390fd5b61183c612301565b565b61184f611849611c86565b83611d47565b61188e576040517f08c379a000000000000000000000000000000000000000000000000000000000815260040161188590613f7b565b60405180910390fd5b61189a848484846123a3565b50505050565b60606118aa6123ff565b6118b383612491565b6040516020016118c4929190613b84565b6040516020818303038152906040529050919050565b6118e2611c86565b73ffffffffffffffffffffffffffffffffffffffff16611900611401565b73ffffffffffffffffffffffffffffffffffffffff1614611956576040517f08c379a000000000000000000000000000000000000000000000000000000000815260040161194d90613f1b565b60405180910390fd5b61195e6125f2565b565b60608060005b61196e610b21565b811015611a0c57600d600082815260200190815260200160002060020160009054906101000a900473ffffffffffffffffffffffffffffffffffffffff168282815181106119bf576119be614437565b5b602002602001019073ffffffffffffffffffffffffffffffffffffffff16908173ffffffffffffffffffffffffffffffffffffffff16815250508080611a0490614301565b915050611966565b508091505090565b6000600560008473ffffffffffffffffffffffffffffffffffffffff1673ffffffffffffffffffffffffffffffffffffffff16815260200190815260200160002060008373ffffffffffffffffffffffffffffffffffffffff1673ffffffffffffffffffffffffffffffffffffffff16815260200190815260200160002060009054906101000a900460ff16905092915050565b611ab0611c86565b73ffffffffffffffffffffffffffffffffffffffff16611ace611401565b73ffffffffffffffffffffffffffffffffffffffff1614611b24576040517f08c379a0000000000000000000000000000000000000000000000000000000008152600401611b1b90613f1b565b60405180910390fd5b600073ffffffffffffffffffffffffffffffffffffffff168173ffffffffffffffffffffffffffffffffffffffff161415611b94576040517f08c379a0000000000000000000000000000000000000000000000000000000008152600401611b8b90613d7b565b60405180910390fd5b611b9d816120ce565b50565b60007f780e9d63000000000000000000000000000000000000000000000000000000007bffffffffffffffffffffffffffffffffffffffffffffffffffffffff1916827bffffffffffffffffffffffffffffffffffffffffffffffffffffffff19161480611c135750611c1282612695565b5b9050919050565b60008073ffffffffffffffffffffffffffffffffffffffff166002600084815260200190815260200160002060009054906101000a900473ffffffffffffffffffffffffffffffffffffffff1673ffffffffffffffffffffffffffffffffffffffff1614159050919050565b600033905090565b816004600083815260200190815260200160002060006101000a81548173ffffffffffffffffffffffffffffffffffffffff021916908373ffffffffffffffffffffffffffffffffffffffff160217905550808273ffffffffffffffffffffffffffffffffffffffff16611d018361120f565b73ffffffffffffffffffffffffffffffffffffffff167f8c5be1e5ebec7d5bd14f71427d1e84f3dd0314c0f7b2291e5b200ac8c7c3b92560405160405180910390a45050565b6000611d5282611c1a565b611d91576040517f08c379a0000000000000000000000000000000000000000000000000000000008152600401611d8890613e3b565b60405180910390fd5b6000611d9c8361120f565b90508073ffffffffffffffffffffffffffffffffffffffff168473ffffffffffffffffffffffffffffffffffffffff161480611e0b57508373ffffffffffffffffffffffffffffffffffffffff16611df384610984565b73ffffffffffffffffffffffffffffffffffffffff16145b80611e1c5750611e1b8185611a14565b5b91505092915050565b8273ffffffffffffffffffffffffffffffffffffffff16611e458261120f565b73ffffffffffffffffffffffffffffffffffffffff1614611e9b576040517f08c379a0000000000000000000000000000000000000000000000000000000008152600401611e9290613d9b565b60405180910390fd5b600073ffffffffffffffffffffffffffffffffffffffff168273ffffffffffffffffffffffffffffffffffffffff161415611f0b576040517f08c379a0000000000000000000000000000000000000000000000000000000008152600401611f0290613ddb565b60405180910390fd5b611f16838383612777565b611f21600082611c8e565b6001600360008573ffffffffffffffffffffffffffffffffffffffff1673ffffffffffffffffffffffffffffffffffffffff1681526020019081526020016000206000828254611f7191906141b4565b925050819055506001600360008473ffffffffffffffffffffffffffffffffffffffff1673ffffffffffffffffffffffffffffffffffffffff1681526020019081526020016000206000828254611fc8919061412d565b92505081905550816002600083815260200190815260200160002060006101000a81548173ffffffffffffffffffffffffffffffffffffffff021916908373ffffffffffffffffffffffffffffffffffffffff160217905550808273ffffffffffffffffffffffffffffffffffffffff168473ffffffffffffffffffffffffffffffffffffffff167fddf252ad1be2c89b69c2b068fc378daa952ba7f163c4a11628f55a4df523b3ef60405160405180910390a4612087838383612787565b505050565b600081600001549050919050565b6120b482826040518060200160405280600081525061278c565b5050565b6001816000016000828254019250508190555050565b6000600a60009054906101000a900473ffffffffffffffffffffffffffffffffffffffff16905081600a60006101000a81548173ffffffffffffffffffffffffffffffffffffffff021916908373ffffffffffffffffffffffffffffffffffffffff1602179055508173ffffffffffffffffffffffffffffffffffffffff168173ffffffffffffffffffffffffffffffffffffffff167f8be0079c531659141344cd1fd0a4f28419497f9722a3daafe3b4186f6b6457e060405160405180910390a35050565b8173ffffffffffffffffffffffffffffffffffffffff168373ffffffffffffffffffffffffffffffffffffffff161415612203576040517f08c379a00000000000000000000000000000000000000000000000000000000081526004016121fa90613dfb565b60405180910390fd5b80600560008573ffffffffffffffffffffffffffffffffffffffff1673ffffffffffffffffffffffffffffffffffffffff16815260200190815260200160002060008473ffffffffffffffffffffffffffffffffffffffff1673ffffffffffffffffffffffffffffffffffffffff16815260200190815260200160002060006101000a81548160ff0219169083151502179055508173ffffffffffffffffffffffffffffffffffffffff168373ffffffffffffffffffffffffffffffffffffffff167f17307eab39ab6107e8899845ad3d59bd9653f200f220920489ca2b5937696c31836040516122f49190613cbe565b60405180910390a3505050565b6123096111f8565b612348576040517f08c379a000000000000000000000000000000000000000000000000000000000815260040161233f90613cfb565b60405180910390fd5b6000600a60146101000a81548160ff0219169083151502179055507f5db9ee0a495bf2e6ff9c91a7834c1ba4fdd244a5e8aa4e537bd38aeae4b073aa61238c611c86565b6040516123999190613bb3565b60405180910390a1565b6123ae848484611e25565b6123ba848484846127e7565b6123f9576040517f08c379a00000000000000000000000000000000000000000000000000000000081526004016123f090613d5b565b60405180910390fd5b50505050565b6060600c805461240e9061429e565b80601f016020809104026020016040519081016040528092919081815260200182805461243a9061429e565b80156124875780601f1061245c57610100808354040283529160200191612487565b820191906000526020600020905b81548152906001019060200180831161246a57829003601f168201915b5050505050905090565b606060008214156124d9576040518060400160405280600181526020017f300000000000000000000000000000000000000000000000000000000000000081525090506125ed565b600082905060005b6000821461250b5780806124f490614301565b915050600a826125049190614183565b91506124e1565b60008167ffffffffffffffff81111561252757612526614466565b5b6040519080825280601f01601f1916602001820160405280156125595781602001600182028036833780820191505090505b5090505b600085146125e65760018261257291906141b4565b9150600a85612581919061434a565b603061258d919061412d565b60f81b8183815181106125a3576125a2614437565b5b60200101907effffffffffffffffffffffffffffffffffffffffffffffffffffffffffffff1916908160001a905350600a856125df9190614183565b945061255d565b8093505050505b919050565b6125fa6111f8565b1561263a576040517f08c379a000000000000000000000000000000000000000000000000000000000815260040161263190613e5b565b60405180910390fd5b6001600a60146101000a81548160ff0219169083151502179055507f62e78cea01bee320cd4e420270b5ea74000d11b0c9f74754ebdbfc544b05a25861267e611c86565b60405161268b9190613bb3565b60405180910390a1565b60007f80ac58cd000000000000000000000000000000000000000000000000000000007bffffffffffffffffffffffffffffffffffffffffffffffffffffffff1916827bffffffffffffffffffffffffffffffffffffffffffffffffffffffff1916148061276057507f5b5e139f000000000000000000000000000000000000000000000000000000007bffffffffffffffffffffffffffffffffffffffffffffffffffffffff1916827bffffffffffffffffffffffffffffffffffffffffffffffffffffffff1916145b80612770575061276f8261297e565b5b9050919050565b6127828383836129e8565b505050565b505050565b6127968383612afc565b6127a360008484846127e7565b6127e2576040517f08c379a00000000000000000000000000000000000000000000000000000000081526004016127d990613d5b565b60405180910390fd5b505050565b60006128088473ffffffffffffffffffffffffffffffffffffffff16612cd6565b15612971578373ffffffffffffffffffffffffffffffffffffffff1663150b7a02612831611c86565b8786866040518563ffffffff1660e01b81526004016128539493929190613c2e565b602060405180830381600087803b15801561286d57600080fd5b505af192505050801561289e57506040513d601f19601f8201168201806040525081019061289b9190613492565b60015b612921573d80600081146128ce576040519150601f19603f3d011682016040523d82523d6000602084013e6128d3565b606091505b50600081511415612919576040517f08c379a000000000000000000000000000000000000000000000000000000000815260040161291090613d5b565b60405180910390fd5b805181602001fd5b63150b7a0260e01b7bffffffffffffffffffffffffffffffffffffffffffffffffffffffff1916817bffffffffffffffffffffffffffffffffffffffffffffffffffffffff191614915050612976565b600190505b949350505050565b60007f01ffc9a7000000000000000000000000000000000000000000000000000000007bffffffffffffffffffffffffffffffffffffffffffffffffffffffff1916827bffffffffffffffffffffffffffffffffffffffffffffffffffffffff1916149050919050565b6129f3838383612cf9565b600073ffffffffffffffffffffffffffffffffffffffff168373ffffffffffffffffffffffffffffffffffffffff161415612a3657612a3181612cfe565b612a75565b8173ffffffffffffffffffffffffffffffffffffffff168373ffffffffffffffffffffffffffffffffffffffff1614612a7457612a738382612d47565b5b5b600073ffffffffffffffffffffffffffffffffffffffff168273ffffffffffffffffffffffffffffffffffffffff161415612ab857612ab381612eb4565b612af7565b8273ffffffffffffffffffffffffffffffffffffffff168273ffffffffffffffffffffffffffffffffffffffff1614612af657612af58282612f85565b5b5b505050565b600073ffffffffffffffffffffffffffffffffffffffff168273ffffffffffffffffffffffffffffffffffffffff161415612b6c576040517f08c379a0000000000000000000000000000000000000000000000000000000008152600401612b6390613edb565b60405180910390fd5b612b7581611c1a565b15612bb5576040517f08c379a0000000000000000000000000000000000000000000000000000000008152600401612bac90613dbb565b60405180910390fd5b612bc160008383612777565b6001600360008473ffffffffffffffffffffffffffffffffffffffff1673ffffffffffffffffffffffffffffffffffffffff1681526020019081526020016000206000828254612c11919061412d565b92505081905550816002600083815260200190815260200160002060006101000a81548173ffffffffffffffffffffffffffffffffffffffff021916908373ffffffffffffffffffffffffffffffffffffffff160217905550808273ffffffffffffffffffffffffffffffffffffffff16600073ffffffffffffffffffffffffffffffffffffffff167fddf252ad1be2c89b69c2b068fc378daa952ba7f163c4a11628f55a4df523b3ef60405160405180910390a4612cd260008383612787565b5050565b6000808273ffffffffffffffffffffffffffffffffffffffff163b119050919050565b505050565b6008805490506009600083815260200190815260200160002081905550600881908060018154018082558091505060019003906000526020600020016000909190919091505550565b60006001612d54846112c1565b612d5e91906141b4565b9050600060076000848152602001908152602001600020549050818114612e43576000600660008673ffffffffffffffffffffffffffffffffffffffff1673ffffffffffffffffffffffffffffffffffffffff168152602001908152602001600020600084815260200190815260200160002054905080600660008773ffffffffffffffffffffffffffffffffffffffff1673ffffffffffffffffffffffffffffffffffffffff168152602001908152602001600020600084815260200190815260200160002081905550816007600083815260200190815260200160002081905550505b6007600084815260200190815260200160002060009055600660008573ffffffffffffffffffffffffffffffffffffffff1673ffffffffffffffffffffffffffffffffffffffff16815260200190815260200160002060008381526020019081526020016000206000905550505050565b60006001600880549050612ec891906141b4565b9050600060096000848152602001908152602001600020549050600060088381548110612ef857612ef7614437565b5b906000526020600020015490508060088381548110612f1a57612f19614437565b5b906000526020600020018190555081600960008381526020019081526020016000208190555060096000858152602001908152602001600020600090556008805480612f6957612f68614408565b5b6001900381819060005260206000200160009055905550505050565b6000612f90836112c1565b905081600660008573ffffffffffffffffffffffffffffffffffffffff1673ffffffffffffffffffffffffffffffffffffffff168152602001908152602001600020600083815260200190815260200160002081905550806007600084815260200190815260200160002081905550505050565b6040518060a001604052806000815260200160008152602001600073ffffffffffffffffffffffffffffffffffffffff168152602001600073ffffffffffffffffffffffffffffffffffffffff168152602001600081525090565b82805461306b9061429e565b90600052602060002090601f01602090048101928261308d57600085556130d4565b82601f106130a657805160ff19168380011785556130d4565b828001600101855582156130d4579182015b828111156130d35782518255916020019190600101906130b8565b5b5090506130e191906130e5565b5090565b5b808211156130fe5760008160009055506001016130e6565b5090565b600061311561311084614016565b613ff1565b9050828152602081018484840111156131315761313061449a565b5b61313c84828561425c565b509392505050565b600061315761315284614047565b613ff1565b9050828152602081018484840111156131735761317261449a565b5b61317e84828561425c565b509392505050565b60008135905061319581614a7d565b92915050565b6000813590506131aa81614a94565b92915050565b6000815190506131bf81614a94565b92915050565b6000813590506131d481614aab565b92915050565b6000815190506131e981614aab565b92915050565b600082601f83011261320457613203614495565b5b8135613214848260208601613102565b91505092915050565b600082601f83011261323257613231614495565b5b8135613242848260208601613144565b91505092915050565b60008135905061325a81614ac2565b92915050565b60008151905061326f81614ac2565b92915050565b60006020828403121561328b5761328a6144a4565b5b600061329984828501613186565b91505092915050565b600080604083850312156132b9576132b86144a4565b5b60006132c785828601613186565b92505060206132d885828601613186565b9150509250929050565b6000806000606084860312156132fb576132fa6144a4565b5b600061330986828701613186565b935050602061331a86828701613186565b925050604061332b8682870161324b565b9150509250925092565b6000806000806080858703121561334f5761334e6144a4565b5b600061335d87828801613186565b945050602061336e87828801613186565b935050604061337f8782880161324b565b925050606085013567ffffffffffffffff8111156133a05761339f61449f565b5b6133ac878288016131ef565b91505092959194509250565b600080604083850312156133cf576133ce6144a4565b5b60006133dd85828601613186565b92505060206133ee8582860161319b565b9150509250929050565b6000806040838503121561340f5761340e6144a4565b5b600061341d85828601613186565b925050602061342e8582860161324b565b9150509250929050565b60006020828403121561344e5761344d6144a4565b5b600061345c848285016131b0565b91505092915050565b60006020828403121561347b5761347a6144a4565b5b6000613489848285016131c5565b91505092915050565b6000602082840312156134a8576134a76144a4565b5b60006134b6848285016131da565b91505092915050565b6000602082840312156134d5576134d46144a4565b5b600082013567ffffffffffffffff8111156134f3576134f261449f565b5b6134ff8482850161321d565b91505092915050565b60006020828403121561351e5761351d6144a4565b5b600061352c8482850161324b565b91505092915050565b60006020828403121561354b5761354a6144a4565b5b600061355984828501613260565b91505092915050565b60008060006060848603121561357b5761357a6144a4565b5b60006135898682870161324b565b935050602061359a86828701613186565b92505060406135ab8682870161324b565b9150509250925092565b60006135c183836135e5565b60208301905092915050565b60006135d98383613a96565b60a08301905092915050565b6135ee816141e8565b82525050565b6135fd816141e8565b82525050565b600061360e82614098565b61361881856140de565b935061362383614078565b8060005b8381101561365457815161363b88826135b5565b9750613646836140c4565b925050600181019050613627565b5085935050505092915050565b600061366c826140a3565b61367681856140ef565b935061368183614088565b8060005b838110156136b257815161369988826135cd565b97506136a4836140d1565b925050600181019050613685565b5085935050505092915050565b6136c8816141fa565b82525050565b60006136d9826140ae565b6136e38185614100565b93506136f381856020860161426b565b6136fc816144a9565b840191505092915050565b6000613712826140b9565b61371c8185614111565b935061372c81856020860161426b565b613735816144a9565b840191505092915050565b600061374b826140b9565b6137558185614122565b935061376581856020860161426b565b80840191505092915050565b600061377e601483614111565b9150613789826144ba565b602082019050919050565b60006137a1603083614111565b91506137ac826144e3565b604082019050919050565b60006137c4602b83614111565b91506137cf82614532565b604082019050919050565b60006137e7603283614111565b91506137f282614581565b604082019050919050565b600061380a602683614111565b9150613815826145d0565b604082019050919050565b600061382d602583614111565b91506138388261461f565b604082019050919050565b6000613850601c83614111565b915061385b8261466e565b602082019050919050565b6000613873602483614111565b915061387e82614697565b604082019050919050565b6000613896601983614111565b91506138a1826146e6565b602082019050919050565b60006138b9601b83614111565b91506138c48261470f565b602082019050919050565b60006138dc602c83614111565b91506138e782614738565b604082019050919050565b60006138ff601083614111565b915061390a82614787565b602082019050919050565b6000613922603883614111565b915061392d826147b0565b604082019050919050565b6000613945602a83614111565b9150613950826147ff565b604082019050919050565b6000613968602983614111565b91506139738261484e565b604082019050919050565b600061398b602083614111565b91506139968261489d565b602082019050919050565b60006139ae602c83614111565b91506139b9826148c6565b604082019050919050565b60006139d1600583614122565b91506139dc82614915565b600582019050919050565b60006139f4602083614111565b91506139ff8261493e565b602082019050919050565b6000613a17602083614111565b9150613a2282614967565b602082019050919050565b6000613a3a602183614111565b9150613a4582614990565b604082019050919050565b6000613a5d603183614111565b9150613a68826149df565b604082019050919050565b6000613a80602c83614111565b9150613a8b82614a2e565b604082019050919050565b60a082016000820151613aac6000850182613b66565b506020820151613abf6020850182613b66565b506040820151613ad260408501826135e5565b506060820151613ae560608501826135e5565b506080820151613af86080850182613b66565b50505050565b60a082016000820151613b146000850182613b66565b506020820151613b276020850182613b66565b506040820151613b3a60408501826135e5565b506060820151613b4d60608501826135e5565b506080820151613b606080850182613b66565b50505050565b613b6f81614252565b82525050565b613b7e81614252565b82525050565b6000613b908285613740565b9150613b9c8284613740565b9150613ba7826139c4565b91508190509392505050565b6000602082019050613bc860008301846135f4565b92915050565b6000604082019050613be360008301856135f4565b613bf060208301846135f4565b9392505050565b6000606082019050613c0c60008301866135f4565b613c1960208301856135f4565b613c266040830184613b75565b949350505050565b6000608082019050613c4360008301876135f4565b613c5060208301866135f4565b613c5d6040830185613b75565b8181036060830152613c6f81846136ce565b905095945050505050565b60006020820190508181036000830152613c948184613603565b905092915050565b60006020820190508181036000830152613cb68184613661565b905092915050565b6000602082019050613cd360008301846136bf565b92915050565b60006020820190508181036000830152613cf38184613707565b905092915050565b60006020820190508181036000830152613d1481613771565b9050919050565b60006020820190508181036000830152613d3481613794565b9050919050565b60006020820190508181036000830152613d54816137b7565b9050919050565b60006020820190508181036000830152613d74816137da565b9050919050565b60006020820190508181036000830152613d94816137fd565b9050919050565b60006020820190508181036000830152613db481613820565b9050919050565b60006020820190508181036000830152613dd481613843565b9050919050565b60006020820190508181036000830152613df481613866565b9050919050565b60006020820190508181036000830152613e1481613889565b9050919050565b60006020820190508181036000830152613e34816138ac565b9050919050565b60006020820190508181036000830152613e54816138cf565b9050919050565b60006020820190508181036000830152613e74816138f2565b9050919050565b60006020820190508181036000830152613e9481613915565b9050919050565b60006020820190508181036000830152613eb481613938565b9050919050565b60006020820190508181036000830152613ed48161395b565b9050919050565b60006020820190508181036000830152613ef48161397e565b9050919050565b60006020820190508181036000830152613f14816139a1565b9050919050565b60006020820190508181036000830152613f34816139e7565b9050919050565b60006020820190508181036000830152613f5481613a0a565b9050919050565b60006020820190508181036000830152613f7481613a2d565b9050919050565b60006020820190508181036000830152613f9481613a50565b9050919050565b60006020820190508181036000830152613fb481613a73565b9050919050565b600060a082019050613fd06000830184613afe565b92915050565b6000602082019050613feb6000830184613b75565b92915050565b6000613ffb61400c565b905061400782826142d0565b919050565b6000604051905090565b600067ffffffffffffffff82111561403157614030614466565b5b61403a826144a9565b9050602081019050919050565b600067ffffffffffffffff82111561406257614061614466565b5b61406b826144a9565b9050602081019050919050565b6000819050602082019050919050565b6000819050602082019050919050565b600081519050919050565b600081519050919050565b600081519050919050565b600081519050919050565b6000602082019050919050565b6000602082019050919050565b600082825260208201905092915050565b600082825260208201905092915050565b600082825260208201905092915050565b600082825260208201905092915050565b600081905092915050565b600061413882614252565b915061414383614252565b9250827fffffffffffffffffffffffffffffffffffffffffffffffffffffffffffffffff038211156141785761417761437b565b5b828201905092915050565b600061418e82614252565b915061419983614252565b9250826141a9576141a86143aa565b5b828204905092915050565b60006141bf82614252565b91506141ca83614252565b9250828210156141dd576141dc61437b565b5b828203905092915050565b60006141f382614232565b9050919050565b60008115159050919050565b60007fffffffff0000000000000000000000000000000000000000000000000000000082169050919050565b600073ffffffffffffffffffffffffffffffffffffffff82169050919050565b6000819050919050565b82818337600083830152505050565b60005b8381101561428957808201518184015260208101905061426e565b83811115614298576000848401525b50505050565b600060028204905060018216806142b657607f821691505b602082108114156142ca576142c96143d9565b5b50919050565b6142d9826144a9565b810181811067ffffffffffffffff821117156142f8576142f7614466565b5b80604052505050565b600061430c82614252565b91507fffffffffffffffffffffffffffffffffffffffffffffffffffffffffffffffff82141561433f5761433e61437b565b5b600182019050919050565b600061435582614252565b915061436083614252565b9250826143705761436f6143aa565b5b828206905092915050565b7f4e487b7100000000000000000000000000000000000000000000000000000000600052601160045260246000fd5b7f4e487b7100000000000000000000000000000000000000000000000000000000600052601260045260246000fd5b7f4e487b7100000000000000000000000000000000000000000000000000000000600052602260045260246000fd5b7f4e487b7100000000000000000000000000000000000000000000000000000000600052603160045260246000fd5b7f4e487b7100000000000000000000000000000000000000000000000000000000600052603260045260246000fd5b7f4e487b7100000000000000000000000000000000000000000000000000000000600052604160045260246000fd5b600080fd5b600080fd5b600080fd5b600080fd5b6000601f19601f8301169050919050565b7f5061757361626c653a206e6f7420706175736564000000000000000000000000600082015250565b7f596f7520646f6e2774206f776e20656e6f75676820746f6b656e7320746f207360008201527f656e64207468697320616d6f756e742e00000000000000000000000000000000602082015250565b7f455243373231456e756d657261626c653a206f776e657220696e646578206f7560008201527f74206f6620626f756e6473000000000000000000000000000000000000000000602082015250565b7f4552433732313a207472616e7366657220746f206e6f6e20455243373231526560008201527f63656976657220696d706c656d656e7465720000000000000000000000000000602082015250565b7f4f776e61626c653a206e6577206f776e657220697320746865207a65726f206160008201527f6464726573730000000000000000000000000000000000000000000000000000602082015250565b7f4552433732313a207472616e736665722066726f6d20696e636f72726563742060008201527f6f776e6572000000000000000000000000000000000000000000000000000000602082015250565b7f4552433732313a20746f6b656e20616c7265616479206d696e74656400000000600082015250565b7f4552433732313a207472616e7366657220746f20746865207a65726f2061646460008201527f7265737300000000000000000000000000000000000000000000000000000000602082015250565b7f4552433732313a20617070726f766520746f2063616c6c657200000000000000600082015250565b7f4e6f7420656e6f75676820746f6b656e20616c6c6f77616e63652e0000000000600082015250565b7f4552433732313a206f70657261746f7220717565727920666f72206e6f6e657860008201527f697374656e7420746f6b656e0000000000000000000000000000000000000000602082015250565b7f5061757361626c653a2070617573656400000000000000000000000000000000600082015250565b7f4552433732313a20617070726f76652063616c6c6572206973206e6f74206f7760008201527f6e6572206e6f7220617070726f76656420666f7220616c6c0000000000000000602082015250565b7f4552433732313a2062616c616e636520717565727920666f7220746865207a6560008201527f726f206164647265737300000000000000000000000000000000000000000000602082015250565b7f4552433732313a206f776e657220717565727920666f72206e6f6e657869737460008201527f656e7420746f6b656e0000000000000000000000000000000000000000000000602082015250565b7f4552433732313a206d696e7420746f20746865207a65726f2061646472657373600082015250565b7f4552433732313a20617070726f76656420717565727920666f72206e6f6e657860008201527f697374656e7420746f6b656e0000000000000000000000000000000000000000602082015250565b7f2e6a736f6e000000000000000000000000000000000000000000000000000000600082015250565b7f4f776e61626c653a2063616c6c6572206973206e6f7420746865206f776e6572600082015250565b7f446f6e6174696f6e73206d7573742062652067726561746572207468616e2030600082015250565b7f4552433732313a20617070726f76616c20746f2063757272656e74206f776e6560008201527f7200000000000000000000000000000000000000000000000000000000000000602082015250565b7f4552433732313a207472616e736665722063616c6c6572206973206e6f74206f60008201527f776e6572206e6f7220617070726f766564000000000000000000000000000000602082015250565b7f455243373231456e756d657261626c653a20676c6f62616c20696e646578206f60008201527f7574206f6620626f756e64730000000000000000000000000000000000000000602082015250565b614a86816141e8565b8114614a9157600080fd5b50565b614a9d816141fa565b8114614aa857600080fd5b50565b614ab481614206565b8114614abf57600080fd5b50565b614acb81614252565b8114614ad657600080fd5b5056fea26469706673582212205e1d79272893231135d2c1b3419b6ca36d26d94bbd5744491a8e14044ddf199364736f6c63430008070033446567656e2044776172667320436f6d6d756e6974792041727420436f6c6c656374696f6e",
  "linkReferences": {},
  "deployedLinkReferences": {}
}