{
  "_format": "hh-sol-artifact-1",
  "contractName": "PlaguePitTrophy",
  "sourceName": "contracts/PlaguePitTrophy.sol",
  "abi": [
    {
      "inputs": [],
      "stateMutability": "nonpayable",
      "type": "constructor"
    },
    {
      "anonymous": false,
      "inputs": [
        {
          "indexed": true,
          "internalType": "address",
          "name": "owner",
          "type": "address"
        },
        {
          "indexed": true,
          "internalType": "address",
          "name": "approved",
          "type": "address"
        },
        {
          "indexed": true,
          "internalType": "uint256",
          "name": "tokenId",
          "type": "uint256"
        }
      ],
      "name": "Approval",
      "type": "event"
    },
    {
      "anonymous": false,
      "inputs": [
        {
          "indexed": true,
          "internalType": "address",
          "name": "owner",
          "type": "address"
        },
        {
          "indexed": true,
          "internalType": "address",
          "name": "operator",
          "type": "address"
        },
        {
          "indexed": false,
          "internalType": "bool",
          "name": "approved",
          "type": "bool"
        }
      ],
      "name": "ApprovalForAll",
      "type": "event"
    },
    {
      "anonymous": false,
      "inputs": [
        {
          "indexed": true,
          "internalType": "address",
          "name": "previousOwner",
          "type": "address"
        },
        {
          "indexed": true,
          "internalType": "address",
          "name": "newOwner",
          "type": "address"
        }
      ],
      "name": "OwnershipTransferred",
      "type": "event"
    },
    {
      "anonymous": false,
      "inputs": [
        {
          "indexed": false,
          "internalType": "address",
          "name": "account",
          "type": "address"
        }
      ],
      "name": "Paused",
      "type": "event"
    },
    {
      "anonymous": false,
      "inputs": [
        {
          "indexed": true,
          "internalType": "address",
          "name": "from",
          "type": "address"
        },
        {
          "indexed": true,
          "internalType": "address",
          "name": "to",
          "type": "address"
        },
        {
          "indexed": true,
          "internalType": "uint256",
          "name": "tokenId",
          "type": "uint256"
        }
      ],
      "name": "Transfer",
      "type": "event"
    },
    {
      "anonymous": false,
      "inputs": [
        {
          "indexed": false,
          "internalType": "address",
          "name": "account",
          "type": "address"
        }
      ],
      "name": "Unpaused",
      "type": "event"
    },
    {
      "inputs": [],
      "name": "_champIds",
      "outputs": [
        {
          "internalType": "uint256",
          "name": "_value",
          "type": "uint256"
        }
      ],
      "stateMutability": "view",
      "type": "function"
    },
    {
      "inputs": [
        {
          "internalType": "address",
          "name": "to",
          "type": "address"
        },
        {
          "internalType": "uint256",
          "name": "tokenId",
          "type": "uint256"
        }
      ],
      "name": "approve",
      "outputs": [],
      "stateMutability": "nonpayable",
      "type": "function"
    },
    {
      "inputs": [
        {
          "internalType": "address",
          "name": "owner",
          "type": "address"
        }
      ],
      "name": "balanceOf",
      "outputs": [
        {
          "internalType": "uint256",
          "name": "",
          "type": "uint256"
        }
      ],
      "stateMutability": "view",
      "type": "function"
    },
    {
      "inputs": [
        {
          "internalType": "uint256",
          "name": "tokenId",
          "type": "uint256"
        }
      ],
      "name": "getApproved",
      "outputs": [
        {
          "internalType": "address",
          "name": "",
          "type": "address"
        }
      ],
      "stateMutability": "view",
      "type": "function"
    },
    {
      "inputs": [
        {
          "internalType": "uint256",
          "name": "_champId",
          "type": "uint256"
        }
      ],
      "name": "getChampion",
      "outputs": [
        {
          "components": [
            {
              "internalType": "uint256",
              "name": "id",
              "type": "uint256"
            },
            {
              "internalType": "uint256",
              "name": "mintDate",
              "type": "uint256"
            },
            {
              "internalType": "address",
              "name": "winner",
              "type": "address"
            },
            {
              "internalType": "uint256",
              "name": "buboId",
              "type": "uint256"
            }
          ],
          "internalType": "struct PlaguePitTrophy.Trophy",
          "name": "",
          "type": "tuple"
        }
      ],
      "stateMutability": "view",
      "type": "function"
    },
    {
      "inputs": [],
      "name": "getCollection",
      "outputs": [
        {
          "components": [
            {
              "internalType": "uint256",
              "name": "id",
              "type": "uint256"
            },
            {
              "internalType": "uint256",
              "name": "mintDate",
              "type": "uint256"
            },
            {
              "internalType": "address",
              "name": "winner",
              "type": "address"
            },
            {
              "internalType": "uint256",
              "name": "buboId",
              "type": "uint256"
            }
          ],
          "internalType": "struct PlaguePitTrophy.Trophy[]",
          "name": "",
          "type": "tuple[]"
        }
      ],
      "stateMutability": "view",
      "type": "function"
    },
    {
      "inputs": [],
      "name": "getHallOfBUBOs",
      "outputs": [
        {
          "internalType": "address[]",
          "name": "",
          "type": "address[]"
        }
      ],
      "stateMutability": "view",
      "type": "function"
    },
    {
      "inputs": [
        {
          "internalType": "address",
          "name": "owner",
          "type": "address"
        },
        {
          "internalType": "address",
          "name": "operator",
          "type": "address"
        }
      ],
      "name": "isApprovedForAll",
      "outputs": [
        {
          "internalType": "bool",
          "name": "",
          "type": "bool"
        }
      ],
      "stateMutability": "view",
      "type": "function"
    },
    {
      "inputs": [],
      "name": "name",
      "outputs": [
        {
          "internalType": "string",
          "name": "",
          "type": "string"
        }
      ],
      "stateMutability": "view",
      "type": "function"
    },
    {
      "inputs": [],
      "name": "owner",
      "outputs": [
        {
          "internalType": "address",
          "name": "",
          "type": "address"
        }
      ],
      "stateMutability": "view",
      "type": "function"
    },
    {
      "inputs": [
        {
          "internalType": "uint256",
          "name": "tokenId",
          "type": "uint256"
        }
      ],
      "name": "ownerOf",
      "outputs": [
        {
          "internalType": "address",
          "name": "",
          "type": "address"
        }
      ],
      "stateMutability": "view",
      "type": "function"
    },
    {
      "inputs": [],
      "name": "pauseMinting",
      "outputs": [],
      "stateMutability": "nonpayable",
      "type": "function"
    },
    {
      "inputs": [],
      "name": "paused",
      "outputs": [
        {
          "internalType": "bool",
          "name": "",
          "type": "bool"
        }
      ],
      "stateMutability": "view",
      "type": "function"
    },
    {
      "inputs": [],
      "name": "renounceOwnership",
      "outputs": [],
      "stateMutability": "nonpayable",
      "type": "function"
    },
    {
      "inputs": [
        {
          "internalType": "address",
          "name": "_champ",
          "type": "address"
        },
        {
          "internalType": "uint256",
          "name": "_buboId",
          "type": "uint256"
        }
      ],
      "name": "reward",
      "outputs": [],
      "stateMutability": "nonpayable",
      "type": "function"
    },
    {
      "inputs": [
        {
          "internalType": "address",
          "name": "from",
          "type": "address"
        },
        {
          "internalType": "address",
          "name": "to",
          "type": "address"
        },
        {
          "internalType": "uint256",
          "name": "tokenId",
          "type": "uint256"
        }
      ],
      "name": "safeTransferFrom",
      "outputs": [],
      "stateMutability": "nonpayable",
      "type": "function"
    },
    {
      "inputs": [
        {
          "internalType": "address",
          "name": "from",
          "type": "address"
        },
        {
          "internalType": "address",
          "name": "to",
          "type": "address"
        },
        {
          "internalType": "uint256",
          "name": "tokenId",
          "type": "uint256"
        },
        {
          "internalType": "bytes",
          "name": "_data",
          "type": "bytes"
        }
      ],
      "name": "safeTransferFrom",
      "outputs": [],
      "stateMutability": "nonpayable",
      "type": "function"
    },
    {
      "inputs": [
        {
          "internalType": "address",
          "name": "operator",
          "type": "address"
        },
        {
          "internalType": "bool",
          "name": "approved",
          "type": "bool"
        }
      ],
      "name": "setApprovalForAll",
      "outputs": [],
      "stateMutability": "nonpayable",
      "type": "function"
    },
    {
      "inputs": [
        {
          "internalType": "string",
          "name": "baseURI",
          "type": "string"
        }
      ],
      "name": "setBaseURI",
      "outputs": [],
      "stateMutability": "nonpayable",
      "type": "function"
    },
    {
      "inputs": [
        {
          "internalType": "bytes4",
          "name": "interfaceId",
          "type": "bytes4"
        }
      ],
      "name": "supportsInterface",
      "outputs": [
        {
          "internalType": "bool",
          "name": "",
          "type": "bool"
        }
      ],
      "stateMutability": "view",
      "type": "function"
    },
    {
      "inputs": [],
      "name": "symbol",
      "outputs": [
        {
          "internalType": "string",
          "name": "",
          "type": "string"
        }
      ],
      "stateMutability": "view",
      "type": "function"
    },
    {
      "inputs": [
        {
          "internalType": "uint256",
          "name": "index",
          "type": "uint256"
        }
      ],
      "name": "tokenByIndex",
      "outputs": [
        {
          "internalType": "uint256",
          "name": "",
          "type": "uint256"
        }
      ],
      "stateMutability": "view",
      "type": "function"
    },
    {
      "inputs": [
        {
          "internalType": "address",
          "name": "owner",
          "type": "address"
        },
        {
          "internalType": "uint256",
          "name": "index",
          "type": "uint256"
        }
      ],
      "name": "tokenOfOwnerByIndex",
      "outputs": [
        {
          "internalType": "uint256",
          "name": "",
          "type": "uint256"
        }
      ],
      "stateMutability": "view",
      "type": "function"
    },
    {
      "inputs": [
        {
          "internalType": "uint256",
          "name": "tokenId",
          "type": "uint256"
        }
      ],
      "name": "tokenURI",
      "outputs": [
        {
          "internalType": "string",
          "name": "",
          "type": "string"
        }
      ],
      "stateMutability": "view",
      "type": "function"
    },
    {
      "inputs": [],
      "name": "totalSupply",
      "outputs": [
        {
          "internalType": "uint256",
          "name": "",
          "type": "uint256"
        }
      ],
      "stateMutability": "view",
      "type": "function"
    },
    {
      "inputs": [
        {
          "internalType": "address",
          "name": "from",
          "type": "address"
        },
        {
          "internalType": "address",
          "name": "to",
          "type": "address"
        },
        {
          "internalType": "uint256",
          "name": "tokenId",
          "type": "uint256"
        }
      ],
      "name": "transferFrom",
      "outputs": [],
      "stateMutability": "nonpayable",
      "type": "function"
    },
    {
      "inputs": [
        {
          "internalType": "address",
          "name": "newOwner",
          "type": "address"
        }
      ],
      "name": "transferOwnership",
      "outputs": [],
      "stateMutability": "nonpayable",
      "type": "function"
    },
    {
      "inputs": [],
      "name": "unpauseMinting",
      "outputs": [],
      "stateMutability": "nonpayable",
      "type": "function"
    }
  ],
  "bytecode": "0x60806040523480156200001157600080fd5b506040518060400160405280601181526020017f506c61677565205069742054726f7068790000000000000000000000000000008152506040518060400160405280600681526020017f504c414755450000000000000000000000000000000000000000000000000000815250816000908051906020019062000096929190620001f3565b508060019080519060200190620000af929190620001f3565b505050620000d2620000c66200012560201b60201c565b6200012d60201b60201c565b6000600a60146101000a81548160ff021916908315150217905550604051806080016040528060438152602001620044a560439139600c90805190602001906200011e929190620001f3565b5062000308565b600033905090565b6000600a60009054906101000a900473ffffffffffffffffffffffffffffffffffffffff16905081600a60006101000a81548173ffffffffffffffffffffffffffffffffffffffff021916908373ffffffffffffffffffffffffffffffffffffffff1602179055508173ffffffffffffffffffffffffffffffffffffffff168173ffffffffffffffffffffffffffffffffffffffff167f8be0079c531659141344cd1fd0a4f28419497f9722a3daafe3b4186f6b6457e060405160405180910390a35050565b8280546200020190620002a3565b90600052602060002090601f01602090048101928262000225576000855562000271565b82601f106200024057805160ff191683800117855562000271565b8280016001018555821562000271579182015b828111156200027057825182559160200191906001019062000253565b5b50905062000280919062000284565b5090565b5b808211156200029f57600081600090555060010162000285565b5090565b60006002820490506001821680620002bc57607f821691505b60208210811415620002d357620002d2620002d9565b5b50919050565b7f4e487b7100000000000000000000000000000000000000000000000000000000600052602260045260246000fd5b61418d80620003186000396000f3fe608060405234801561001057600080fd5b50600436106101c45760003560e01c806370a08231116100f9578063b88d4fde11610097578063c87b56dd11610071578063c87b56dd146104e1578063da8fbf2a14610511578063e985e9c51461051b578063f2fde38b1461054b576101c4565b8063b88d4fde14610477578063becc14f414610493578063bf187e65146104c3576101c4565b80638e4387dc116100d35780638e4387dc1461041557806395d89b4114610433578063a22cb46514610451578063ae2003221461046d576101c4565b806370a08231146103bd578063715018a6146103ed5780638da5cb5b146103f7576101c4565b80632f745c59116101665780634f6ccce7116101405780634f6ccce71461032357806355f804b3146103535780635c975abb1461036f5780636352211e1461038d576101c4565b80632f745c59146102b95780634251921e146102e957806342842e0e14610307576101c4565b8063095ea7b3116101a2578063095ea7b31461024757806318160ddd1461026357806321670f221461028157806323b872dd1461029d576101c4565b806301ffc9a7146101c957806306fdde03146101f9578063081812fc14610217575b600080fd5b6101e360048036038101906101de9190612d53565b610567565b6040516101f0919061343d565b60405180910390f35b610201610649565b60405161020e9190613458565b60405180910390f35b610231600480360381019061022c9190612df6565b6106db565b60405161023e9190613392565b60405180910390f35b610261600480360381019061025c9190612d13565b610760565b005b61026b610878565b60405161027891906136f5565b60405180910390f35b61029b60048036038101906102969190612d13565b610885565b005b6102b760048036038101906102b29190612bfd565b610a22565b005b6102d360048036038101906102ce9190612d13565b610a82565b6040516102e091906136f5565b60405180910390f35b6102f1610b27565b6040516102fe919061341b565b60405180910390f35b610321600480360381019061031c9190612bfd565b610c6b565b005b61033d60048036038101906103389190612df6565b610c8b565b60405161034a91906136f5565b60405180910390f35b61036d60048036038101906103689190612dad565b610cfc565b005b610377610d92565b604051610384919061343d565b60405180910390f35b6103a760048036038101906103a29190612df6565b610da9565b6040516103b49190613392565b60405180910390f35b6103d760048036038101906103d29190612b90565b610e5b565b6040516103e491906136f5565b60405180910390f35b6103f5610f13565b005b6103ff610f9b565b60405161040c9190613392565b60405180910390f35b61041d610fc5565b60405161042a91906133f9565b60405180910390f35b61043b611079565b6040516104489190613458565b60405180910390f35b61046b60048036038101906104669190612cd3565b61110b565b005b610475611121565b005b610491600480360381019061048c9190612c50565b6111a7565b005b6104ad60048036038101906104a89190612df6565b611209565b6040516104ba91906136da565b60405180910390f35b6104cb6112aa565b6040516104d891906136f5565b60405180910390f35b6104fb60048036038101906104f69190612df6565b6112b6565b6040516105089190613458565b60405180910390f35b6105196112f0565b005b61053560048036038101906105309190612bbd565b611376565b604051610542919061343d565b60405180910390f35b61056560048036038101906105609190612b90565b61140a565b005b60007f80ac58cd000000000000000000000000000000000000000000000000000000007bffffffffffffffffffffffffffffffffffffffffffffffffffffffff1916827bffffffffffffffffffffffffffffffffffffffffffffffffffffffff1916148061063257507f5b5e139f000000000000000000000000000000000000000000000000000000007bffffffffffffffffffffffffffffffffffffffffffffffffffffffff1916827bffffffffffffffffffffffffffffffffffffffffffffffffffffffff1916145b80610642575061064182611502565b5b9050919050565b606060008054610658906139bd565b80601f0160208091040260200160405190810160405280929190818152602001828054610684906139bd565b80156106d15780601f106106a6576101008083540402835291602001916106d1565b820191906000526020600020905b8154815290600101906020018083116106b457829003601f168201915b5050505050905090565b60006106e68261157c565b610725576040517f08c379a000000000000000000000000000000000000000000000000000000000815260040161071c9061363a565b60405180910390fd5b6004600083815260200190815260200160002060009054906101000a900473ffffffffffffffffffffffffffffffffffffffff169050919050565b600061076b82610da9565b90508073ffffffffffffffffffffffffffffffffffffffff168373ffffffffffffffffffffffffffffffffffffffff1614156107dc576040517f08c379a00000000000000000000000000000000000000000000000000000000081526004016107d39061367a565b60405180910390fd5b8073ffffffffffffffffffffffffffffffffffffffff166107fb6115e8565b73ffffffffffffffffffffffffffffffffffffffff16148061082a5750610829816108246115e8565b611376565b5b610869576040517f08c379a0000000000000000000000000000000000000000000000000000000008152600401610860906135ba565b60405180910390fd5b61087383836115f0565b505050565b6000600880549050905090565b61088d610d92565b156108cd576040517f08c379a00000000000000000000000000000000000000000000000000000000081526004016108c49061359a565b60405180910390fd5b6108d56115e8565b73ffffffffffffffffffffffffffffffffffffffff166108f3610f9b565b73ffffffffffffffffffffffffffffffffffffffff1614610949576040517f08c379a00000000000000000000000000000000000000000000000000000000081526004016109409061365a565b60405180910390fd5b6000610955600b6116a9565b905060405180608001604052808281526020014281526020018473ffffffffffffffffffffffffffffffffffffffff16815260200183815250600d6000838152602001908152602001600020600082015181600001556020820151816001015560408201518160020160006101000a81548173ffffffffffffffffffffffffffffffffffffffff021916908373ffffffffffffffffffffffffffffffffffffffff16021790555060608201518160030155905050610a1383826116b7565b610a1d600b6116d5565b505050565b610a33610a2d6115e8565b826116eb565b610a72576040517f08c379a0000000000000000000000000000000000000000000000000000000008152600401610a699061369a565b60405180910390fd5b610a7d8383836117c9565b505050565b6000610a8d83610e5b565b8210610ace576040517f08c379a0000000000000000000000000000000000000000000000000000000008152600401610ac59061349a565b60405180910390fd5b600660008473ffffffffffffffffffffffffffffffffffffffff1673ffffffffffffffffffffffffffffffffffffffff168152602001908152602001600020600083815260200190815260200160002054905092915050565b60606000610b33610878565b67ffffffffffffffff811115610b4c57610b4b613b85565b5b604051908082528060200260200182016040528015610b8557816020015b610b72612966565b815260200190600190039081610b6a5790505b50905060005b610b93610878565b811015610c63576000600d600083815260200190815260200160002090508060405180608001604052908160008201548152602001600182015481526020016002820160009054906101000a900473ffffffffffffffffffffffffffffffffffffffff1673ffffffffffffffffffffffffffffffffffffffff1673ffffffffffffffffffffffffffffffffffffffff168152602001600382015481525050838381518110610c4457610c43613b56565b5b6020026020010181905250508080610c5b90613a20565b915050610b8b565b508091505090565b610c86838383604051806020016040528060008152506111a7565b505050565b6000610c95610878565b8210610cd6576040517f08c379a0000000000000000000000000000000000000000000000000000000008152600401610ccd906136ba565b60405180910390fd5b60088281548110610cea57610ce9613b56565b5b90600052602060002001549050919050565b610d046115e8565b73ffffffffffffffffffffffffffffffffffffffff16610d22610f9b565b73ffffffffffffffffffffffffffffffffffffffff1614610d78576040517f08c379a0000000000000000000000000000000000000000000000000000000008152600401610d6f9061365a565b60405180910390fd5b80600c9080519060200190610d8e9291906129a4565b5050565b6000600a60149054906101000a900460ff16905090565b6000806002600084815260200190815260200160002060009054906101000a900473ffffffffffffffffffffffffffffffffffffffff169050600073ffffffffffffffffffffffffffffffffffffffff168173ffffffffffffffffffffffffffffffffffffffff161415610e52576040517f08c379a0000000000000000000000000000000000000000000000000000000008152600401610e49906135fa565b60405180910390fd5b80915050919050565b60008073ffffffffffffffffffffffffffffffffffffffff168273ffffffffffffffffffffffffffffffffffffffff161415610ecc576040517f08c379a0000000000000000000000000000000000000000000000000000000008152600401610ec3906135da565b60405180910390fd5b600360008373ffffffffffffffffffffffffffffffffffffffff1673ffffffffffffffffffffffffffffffffffffffff168152602001908152602001600020549050919050565b610f1b6115e8565b73ffffffffffffffffffffffffffffffffffffffff16610f39610f9b565b73ffffffffffffffffffffffffffffffffffffffff1614610f8f576040517f08c379a0000000000000000000000000000000000000000000000000000000008152600401610f869061365a565b60405180910390fd5b610f996000611a30565b565b6000600a60009054906101000a900473ffffffffffffffffffffffffffffffffffffffff16905090565b60608060005b610fd3610878565b81101561107157600d600082815260200190815260200160002060020160009054906101000a900473ffffffffffffffffffffffffffffffffffffffff1682828151811061102457611023613b56565b5b602002602001019073ffffffffffffffffffffffffffffffffffffffff16908173ffffffffffffffffffffffffffffffffffffffff1681525050808061106990613a20565b915050610fcb565b508091505090565b606060018054611088906139bd565b80601f01602080910402602001604051908101604052809291908181526020018280546110b4906139bd565b80156111015780601f106110d657610100808354040283529160200191611101565b820191906000526020600020905b8154815290600101906020018083116110e457829003601f168201915b5050505050905090565b61111d6111166115e8565b8383611af6565b5050565b6111296115e8565b73ffffffffffffffffffffffffffffffffffffffff16611147610f9b565b73ffffffffffffffffffffffffffffffffffffffff161461119d576040517f08c379a00000000000000000000000000000000000000000000000000000000081526004016111949061365a565b60405180910390fd5b6111a5611c63565b565b6111b86111b26115e8565b836116eb565b6111f7576040517f08c379a00000000000000000000000000000000000000000000000000000000081526004016111ee9061369a565b60405180910390fd5b61120384848484611d05565b50505050565b611211612966565b600d600083815260200190815260200160002060405180608001604052908160008201548152602001600182015481526020016002820160009054906101000a900473ffffffffffffffffffffffffffffffffffffffff1673ffffffffffffffffffffffffffffffffffffffff1673ffffffffffffffffffffffffffffffffffffffff1681526020016003820154815250509050919050565b600b8060000154905081565b60606112c0611d61565b6112c983611df3565b6040516020016112da929190613363565b6040516020818303038152906040529050919050565b6112f86115e8565b73ffffffffffffffffffffffffffffffffffffffff16611316610f9b565b73ffffffffffffffffffffffffffffffffffffffff161461136c576040517f08c379a00000000000000000000000000000000000000000000000000000000081526004016113639061365a565b60405180910390fd5b611374611f54565b565b6000600560008473ffffffffffffffffffffffffffffffffffffffff1673ffffffffffffffffffffffffffffffffffffffff16815260200190815260200160002060008373ffffffffffffffffffffffffffffffffffffffff1673ffffffffffffffffffffffffffffffffffffffff16815260200190815260200160002060009054906101000a900460ff16905092915050565b6114126115e8565b73ffffffffffffffffffffffffffffffffffffffff16611430610f9b565b73ffffffffffffffffffffffffffffffffffffffff1614611486576040517f08c379a000000000000000000000000000000000000000000000000000000000815260040161147d9061365a565b60405180910390fd5b600073ffffffffffffffffffffffffffffffffffffffff168173ffffffffffffffffffffffffffffffffffffffff1614156114f6576040517f08c379a00000000000000000000000000000000000000000000000000000000081526004016114ed906134da565b60405180910390fd5b6114ff81611a30565b50565b60007f780e9d63000000000000000000000000000000000000000000000000000000007bffffffffffffffffffffffffffffffffffffffffffffffffffffffff1916827bffffffffffffffffffffffffffffffffffffffffffffffffffffffff19161480611575575061157482611ff7565b5b9050919050565b60008073ffffffffffffffffffffffffffffffffffffffff166002600084815260200190815260200160002060009054906101000a900473ffffffffffffffffffffffffffffffffffffffff1673ffffffffffffffffffffffffffffffffffffffff1614159050919050565b600033905090565b816004600083815260200190815260200160002060006101000a81548173ffffffffffffffffffffffffffffffffffffffff021916908373ffffffffffffffffffffffffffffffffffffffff160217905550808273ffffffffffffffffffffffffffffffffffffffff1661166383610da9565b73ffffffffffffffffffffffffffffffffffffffff167f8c5be1e5ebec7d5bd14f71427d1e84f3dd0314c0f7b2291e5b200ac8c7c3b92560405160405180910390a45050565b600081600001549050919050565b6116d18282604051806020016040528060008152506120d9565b5050565b6001816000016000828254019250508190555050565b60006116f68261157c565b611735576040517f08c379a000000000000000000000000000000000000000000000000000000000815260040161172c9061357a565b60405180910390fd5b600061174083610da9565b90508073ffffffffffffffffffffffffffffffffffffffff168473ffffffffffffffffffffffffffffffffffffffff16148061178257506117818185611376565b5b806117c057508373ffffffffffffffffffffffffffffffffffffffff166117a8846106db565b73ffffffffffffffffffffffffffffffffffffffff16145b91505092915050565b8273ffffffffffffffffffffffffffffffffffffffff166117e982610da9565b73ffffffffffffffffffffffffffffffffffffffff161461183f576040517f08c379a0000000000000000000000000000000000000000000000000000000008152600401611836906134fa565b60405180910390fd5b600073ffffffffffffffffffffffffffffffffffffffff168273ffffffffffffffffffffffffffffffffffffffff1614156118af576040517f08c379a00000000000000000000000000000000000000000000000000000000081526004016118a69061353a565b60405180910390fd5b6118ba838383612134565b6118c56000826115f0565b6001600360008573ffffffffffffffffffffffffffffffffffffffff1673ffffffffffffffffffffffffffffffffffffffff168152602001908152602001600020600082825461191591906138d3565b925050819055506001600360008473ffffffffffffffffffffffffffffffffffffffff1673ffffffffffffffffffffffffffffffffffffffff168152602001908152602001600020600082825461196c919061384c565b92505081905550816002600083815260200190815260200160002060006101000a81548173ffffffffffffffffffffffffffffffffffffffff021916908373ffffffffffffffffffffffffffffffffffffffff160217905550808273ffffffffffffffffffffffffffffffffffffffff168473ffffffffffffffffffffffffffffffffffffffff167fddf252ad1be2c89b69c2b068fc378daa952ba7f163c4a11628f55a4df523b3ef60405160405180910390a4611a2b838383612144565b505050565b6000600a60009054906101000a900473ffffffffffffffffffffffffffffffffffffffff16905081600a60006101000a81548173ffffffffffffffffffffffffffffffffffffffff021916908373ffffffffffffffffffffffffffffffffffffffff1602179055508173ffffffffffffffffffffffffffffffffffffffff168173ffffffffffffffffffffffffffffffffffffffff167f8be0079c531659141344cd1fd0a4f28419497f9722a3daafe3b4186f6b6457e060405160405180910390a35050565b8173ffffffffffffffffffffffffffffffffffffffff168373ffffffffffffffffffffffffffffffffffffffff161415611b65576040517f08c379a0000000000000000000000000000000000000000000000000000000008152600401611b5c9061355a565b60405180910390fd5b80600560008573ffffffffffffffffffffffffffffffffffffffff1673ffffffffffffffffffffffffffffffffffffffff16815260200190815260200160002060008473ffffffffffffffffffffffffffffffffffffffff1673ffffffffffffffffffffffffffffffffffffffff16815260200190815260200160002060006101000a81548160ff0219169083151502179055508173ffffffffffffffffffffffffffffffffffffffff168373ffffffffffffffffffffffffffffffffffffffff167f17307eab39ab6107e8899845ad3d59bd9653f200f220920489ca2b5937696c3183604051611c56919061343d565b60405180910390a3505050565b611c6b610d92565b611caa576040517f08c379a0000000000000000000000000000000000000000000000000000000008152600401611ca19061347a565b60405180910390fd5b6000600a60146101000a81548160ff0219169083151502179055507f5db9ee0a495bf2e6ff9c91a7834c1ba4fdd244a5e8aa4e537bd38aeae4b073aa611cee6115e8565b604051611cfb9190613392565b60405180910390a1565b611d108484846117c9565b611d1c84848484612149565b611d5b576040517f08c379a0000000000000000000000000000000000000000000000000000000008152600401611d52906134ba565b60405180910390fd5b50505050565b6060600c8054611d70906139bd565b80601f0160208091040260200160405190810160405280929190818152602001828054611d9c906139bd565b8015611de95780601f10611dbe57610100808354040283529160200191611de9565b820191906000526020600020905b815481529060010190602001808311611dcc57829003601f168201915b5050505050905090565b60606000821415611e3b576040518060400160405280600181526020017f30000000000000000000000000000000000000000000000000000000000000008152509050611f4f565b600082905060005b60008214611e6d578080611e5690613a20565b915050600a82611e6691906138a2565b9150611e43565b60008167ffffffffffffffff811115611e8957611e88613b85565b5b6040519080825280601f01601f191660200182016040528015611ebb5781602001600182028036833780820191505090505b5090505b60008514611f4857600182611ed491906138d3565b9150600a85611ee39190613a69565b6030611eef919061384c565b60f81b818381518110611f0557611f04613b56565b5b60200101907effffffffffffffffffffffffffffffffffffffffffffffffffffffffffffff1916908160001a905350600a85611f4191906138a2565b9450611ebf565b8093505050505b919050565b611f5c610d92565b15611f9c576040517f08c379a0000000000000000000000000000000000000000000000000000000008152600401611f939061359a565b60405180910390fd5b6001600a60146101000a81548160ff0219169083151502179055507f62e78cea01bee320cd4e420270b5ea74000d11b0c9f74754ebdbfc544b05a258611fe06115e8565b604051611fed9190613392565b60405180910390a1565b60007f80ac58cd000000000000000000000000000000000000000000000000000000007bffffffffffffffffffffffffffffffffffffffffffffffffffffffff1916827bffffffffffffffffffffffffffffffffffffffffffffffffffffffff191614806120c257507f5b5e139f000000000000000000000000000000000000000000000000000000007bffffffffffffffffffffffffffffffffffffffffffffffffffffffff1916827bffffffffffffffffffffffffffffffffffffffffffffffffffffffff1916145b806120d257506120d1826122e0565b5b9050919050565b6120e3838361234a565b6120f06000848484612149565b61212f576040517f08c379a0000000000000000000000000000000000000000000000000000000008152600401612126906134ba565b60405180910390fd5b505050565b61213f838383612524565b505050565b505050565b600061216a8473ffffffffffffffffffffffffffffffffffffffff16612638565b156122d3578373ffffffffffffffffffffffffffffffffffffffff1663150b7a026121936115e8565b8786866040518563ffffffff1660e01b81526004016121b594939291906133ad565b602060405180830381600087803b1580156121cf57600080fd5b505af192505050801561220057506040513d601f19601f820116820180604052508101906121fd9190612d80565b60015b612283573d8060008114612230576040519150601f19603f3d011682016040523d82523d6000602084013e612235565b606091505b5060008151141561227b576040517f08c379a0000000000000000000000000000000000000000000000000000000008152600401612272906134ba565b60405180910390fd5b805181602001fd5b63150b7a0260e01b7bffffffffffffffffffffffffffffffffffffffffffffffffffffffff1916817bffffffffffffffffffffffffffffffffffffffffffffffffffffffff1916149150506122d8565b600190505b949350505050565b60007f01ffc9a7000000000000000000000000000000000000000000000000000000007bffffffffffffffffffffffffffffffffffffffffffffffffffffffff1916827bffffffffffffffffffffffffffffffffffffffffffffffffffffffff1916149050919050565b600073ffffffffffffffffffffffffffffffffffffffff168273ffffffffffffffffffffffffffffffffffffffff1614156123ba576040517f08c379a00000000000000000000000000000000000000000000000000000000081526004016123b19061361a565b60405180910390fd5b6123c38161157c565b15612403576040517f08c379a00000000000000000000000000000000000000000000000000000000081526004016123fa9061351a565b60405180910390fd5b61240f60008383612134565b6001600360008473ffffffffffffffffffffffffffffffffffffffff1673ffffffffffffffffffffffffffffffffffffffff168152602001908152602001600020600082825461245f919061384c565b92505081905550816002600083815260200190815260200160002060006101000a81548173ffffffffffffffffffffffffffffffffffffffff021916908373ffffffffffffffffffffffffffffffffffffffff160217905550808273ffffffffffffffffffffffffffffffffffffffff16600073ffffffffffffffffffffffffffffffffffffffff167fddf252ad1be2c89b69c2b068fc378daa952ba7f163c4a11628f55a4df523b3ef60405160405180910390a461252060008383612144565b5050565b61252f83838361265b565b600073ffffffffffffffffffffffffffffffffffffffff168373ffffffffffffffffffffffffffffffffffffffff1614156125725761256d81612660565b6125b1565b8173ffffffffffffffffffffffffffffffffffffffff168373ffffffffffffffffffffffffffffffffffffffff16146125b0576125af83826126a9565b5b5b600073ffffffffffffffffffffffffffffffffffffffff168273ffffffffffffffffffffffffffffffffffffffff1614156125f4576125ef81612816565b612633565b8273ffffffffffffffffffffffffffffffffffffffff168273ffffffffffffffffffffffffffffffffffffffff16146126325761263182826128e7565b5b5b505050565b6000808273ffffffffffffffffffffffffffffffffffffffff163b119050919050565b505050565b6008805490506009600083815260200190815260200160002081905550600881908060018154018082558091505060019003906000526020600020016000909190919091505550565b600060016126b684610e5b565b6126c091906138d3565b90506000600760008481526020019081526020016000205490508181146127a5576000600660008673ffffffffffffffffffffffffffffffffffffffff1673ffffffffffffffffffffffffffffffffffffffff168152602001908152602001600020600084815260200190815260200160002054905080600660008773ffffffffffffffffffffffffffffffffffffffff1673ffffffffffffffffffffffffffffffffffffffff168152602001908152602001600020600084815260200190815260200160002081905550816007600083815260200190815260200160002081905550505b6007600084815260200190815260200160002060009055600660008573ffffffffffffffffffffffffffffffffffffffff1673ffffffffffffffffffffffffffffffffffffffff16815260200190815260200160002060008381526020019081526020016000206000905550505050565b6000600160088054905061282a91906138d3565b905060006009600084815260200190815260200160002054905060006008838154811061285a57612859613b56565b5b90600052602060002001549050806008838154811061287c5761287b613b56565b5b9060005260206000200181905550816009600083815260200190815260200160002081905550600960008581526020019081526020016000206000905560088054806128cb576128ca613b27565b5b6001900381819060005260206000200160009055905550505050565b60006128f283610e5b565b905081600660008573ffffffffffffffffffffffffffffffffffffffff1673ffffffffffffffffffffffffffffffffffffffff168152602001908152602001600020600083815260200190815260200160002081905550806007600084815260200190815260200160002081905550505050565b60405180608001604052806000815260200160008152602001600073ffffffffffffffffffffffffffffffffffffffff168152602001600081525090565b8280546129b0906139bd565b90600052602060002090601f0160209004810192826129d25760008555612a19565b82601f106129eb57805160ff1916838001178555612a19565b82800160010185558215612a19579182015b82811115612a185782518255916020019190600101906129fd565b5b509050612a269190612a2a565b5090565b5b80821115612a43576000816000905550600101612a2b565b5090565b6000612a5a612a5584613735565b613710565b905082815260208101848484011115612a7657612a75613bb9565b5b612a8184828561397b565b509392505050565b6000612a9c612a9784613766565b613710565b905082815260208101848484011115612ab857612ab7613bb9565b5b612ac384828561397b565b509392505050565b600081359050612ada816140fb565b92915050565b600081359050612aef81614112565b92915050565b600081359050612b0481614129565b92915050565b600081519050612b1981614129565b92915050565b600082601f830112612b3457612b33613bb4565b5b8135612b44848260208601612a47565b91505092915050565b600082601f830112612b6257612b61613bb4565b5b8135612b72848260208601612a89565b91505092915050565b600081359050612b8a81614140565b92915050565b600060208284031215612ba657612ba5613bc3565b5b6000612bb484828501612acb565b91505092915050565b60008060408385031215612bd457612bd3613bc3565b5b6000612be285828601612acb565b9250506020612bf385828601612acb565b9150509250929050565b600080600060608486031215612c1657612c15613bc3565b5b6000612c2486828701612acb565b9350506020612c3586828701612acb565b9250506040612c4686828701612b7b565b9150509250925092565b60008060008060808587031215612c6a57612c69613bc3565b5b6000612c7887828801612acb565b9450506020612c8987828801612acb565b9350506040612c9a87828801612b7b565b925050606085013567ffffffffffffffff811115612cbb57612cba613bbe565b5b612cc787828801612b1f565b91505092959194509250565b60008060408385031215612cea57612ce9613bc3565b5b6000612cf885828601612acb565b9250506020612d0985828601612ae0565b9150509250929050565b60008060408385031215612d2a57612d29613bc3565b5b6000612d3885828601612acb565b9250506020612d4985828601612b7b565b9150509250929050565b600060208284031215612d6957612d68613bc3565b5b6000612d7784828501612af5565b91505092915050565b600060208284031215612d9657612d95613bc3565b5b6000612da484828501612b0a565b91505092915050565b600060208284031215612dc357612dc2613bc3565b5b600082013567ffffffffffffffff811115612de157612de0613bbe565b5b612ded84828501612b4d565b91505092915050565b600060208284031215612e0c57612e0b613bc3565b5b6000612e1a84828501612b7b565b91505092915050565b6000612e2f8383612e53565b60208301905092915050565b6000612e47838361329b565b60808301905092915050565b612e5c81613907565b82525050565b612e6b81613907565b82525050565b6000612e7c826137b7565b612e8681856137fd565b9350612e9183613797565b8060005b83811015612ec2578151612ea98882612e23565b9750612eb4836137e3565b925050600181019050612e95565b5085935050505092915050565b6000612eda826137c2565b612ee4818561380e565b9350612eef836137a7565b8060005b83811015612f20578151612f078882612e3b565b9750612f12836137f0565b925050600181019050612ef3565b5085935050505092915050565b612f3681613919565b82525050565b6000612f47826137cd565b612f51818561381f565b9350612f6181856020860161398a565b612f6a81613bc8565b840191505092915050565b6000612f80826137d8565b612f8a8185613830565b9350612f9a81856020860161398a565b612fa381613bc8565b840191505092915050565b6000612fb9826137d8565b612fc38185613841565b9350612fd381856020860161398a565b80840191505092915050565b6000612fec601483613830565b9150612ff782613bd9565b602082019050919050565b600061300f602b83613830565b915061301a82613c02565b604082019050919050565b6000613032603283613830565b915061303d82613c51565b604082019050919050565b6000613055602683613830565b915061306082613ca0565b604082019050919050565b6000613078602583613830565b915061308382613cef565b604082019050919050565b600061309b601c83613830565b91506130a682613d3e565b602082019050919050565b60006130be602483613830565b91506130c982613d67565b604082019050919050565b60006130e1601983613830565b91506130ec82613db6565b602082019050919050565b6000613104602c83613830565b915061310f82613ddf565b604082019050919050565b6000613127601083613830565b915061313282613e2e565b602082019050919050565b600061314a603883613830565b915061315582613e57565b604082019050919050565b600061316d602a83613830565b915061317882613ea6565b604082019050919050565b6000613190602983613830565b915061319b82613ef5565b604082019050919050565b60006131b3602083613830565b91506131be82613f44565b602082019050919050565b60006131d6602c83613830565b91506131e182613f6d565b604082019050919050565b60006131f9600583613841565b915061320482613fbc565b600582019050919050565b600061321c602083613830565b915061322782613fe5565b602082019050919050565b600061323f602183613830565b915061324a8261400e565b604082019050919050565b6000613262603183613830565b915061326d8261405d565b604082019050919050565b6000613285602c83613830565b9150613290826140ac565b604082019050919050565b6080820160008201516132b16000850182613345565b5060208201516132c46020850182613345565b5060408201516132d76040850182612e53565b5060608201516132ea6060850182613345565b50505050565b6080820160008201516133066000850182613345565b5060208201516133196020850182613345565b50604082015161332c6040850182612e53565b50606082015161333f6060850182613345565b50505050565b61334e81613971565b82525050565b61335d81613971565b82525050565b600061336f8285612fae565b915061337b8284612fae565b9150613386826131ec565b91508190509392505050565b60006020820190506133a76000830184612e62565b92915050565b60006080820190506133c26000830187612e62565b6133cf6020830186612e62565b6133dc6040830185613354565b81810360608301526133ee8184612f3c565b905095945050505050565b600060208201905081810360008301526134138184612e71565b905092915050565b600060208201905081810360008301526134358184612ecf565b905092915050565b60006020820190506134526000830184612f2d565b92915050565b600060208201905081810360008301526134728184612f75565b905092915050565b6000602082019050818103600083015261349381612fdf565b9050919050565b600060208201905081810360008301526134b381613002565b9050919050565b600060208201905081810360008301526134d381613025565b9050919050565b600060208201905081810360008301526134f381613048565b9050919050565b600060208201905081810360008301526135138161306b565b9050919050565b600060208201905081810360008301526135338161308e565b9050919050565b60006020820190508181036000830152613553816130b1565b9050919050565b60006020820190508181036000830152613573816130d4565b9050919050565b60006020820190508181036000830152613593816130f7565b9050919050565b600060208201905081810360008301526135b38161311a565b9050919050565b600060208201905081810360008301526135d38161313d565b9050919050565b600060208201905081810360008301526135f381613160565b9050919050565b6000602082019050818103600083015261361381613183565b9050919050565b60006020820190508181036000830152613633816131a6565b9050919050565b60006020820190508181036000830152613653816131c9565b9050919050565b600060208201905081810360008301526136738161320f565b9050919050565b6000602082019050818103600083015261369381613232565b9050919050565b600060208201905081810360008301526136b381613255565b9050919050565b600060208201905081810360008301526136d381613278565b9050919050565b60006080820190506136ef60008301846132f0565b92915050565b600060208201905061370a6000830184613354565b92915050565b600061371a61372b565b905061372682826139ef565b919050565b6000604051905090565b600067ffffffffffffffff8211156137505761374f613b85565b5b61375982613bc8565b9050602081019050919050565b600067ffffffffffffffff82111561378157613780613b85565b5b61378a82613bc8565b9050602081019050919050565b6000819050602082019050919050565b6000819050602082019050919050565b600081519050919050565b600081519050919050565b600081519050919050565b600081519050919050565b6000602082019050919050565b6000602082019050919050565b600082825260208201905092915050565b600082825260208201905092915050565b600082825260208201905092915050565b600082825260208201905092915050565b600081905092915050565b600061385782613971565b915061386283613971565b9250827fffffffffffffffffffffffffffffffffffffffffffffffffffffffffffffffff0382111561389757613896613a9a565b5b828201905092915050565b60006138ad82613971565b91506138b883613971565b9250826138c8576138c7613ac9565b5b828204905092915050565b60006138de82613971565b91506138e983613971565b9250828210156138fc576138fb613a9a565b5b828203905092915050565b600061391282613951565b9050919050565b60008115159050919050565b60007fffffffff0000000000000000000000000000000000000000000000000000000082169050919050565b600073ffffffffffffffffffffffffffffffffffffffff82169050919050565b6000819050919050565b82818337600083830152505050565b60005b838110156139a857808201518184015260208101905061398d565b838111156139b7576000848401525b50505050565b600060028204905060018216806139d557607f821691505b602082108114156139e9576139e8613af8565b5b50919050565b6139f882613bc8565b810181811067ffffffffffffffff82111715613a1757613a16613b85565b5b80604052505050565b6000613a2b82613971565b91507fffffffffffffffffffffffffffffffffffffffffffffffffffffffffffffffff821415613a5e57613a5d613a9a565b5b600182019050919050565b6000613a7482613971565b9150613a7f83613971565b925082613a8f57613a8e613ac9565b5b828206905092915050565b7f4e487b7100000000000000000000000000000000000000000000000000000000600052601160045260246000fd5b7f4e487b7100000000000000000000000000000000000000000000000000000000600052601260045260246000fd5b7f4e487b7100000000000000000000000000000000000000000000000000000000600052602260045260246000fd5b7f4e487b7100000000000000000000000000000000000000000000000000000000600052603160045260246000fd5b7f4e487b7100000000000000000000000000000000000000000000000000000000600052603260045260246000fd5b7f4e487b7100000000000000000000000000000000000000000000000000000000600052604160045260246000fd5b600080fd5b600080fd5b600080fd5b600080fd5b6000601f19601f8301169050919050565b7f5061757361626c653a206e6f7420706175736564000000000000000000000000600082015250565b7f455243373231456e756d657261626c653a206f776e657220696e646578206f7560008201527f74206f6620626f756e6473000000000000000000000000000000000000000000602082015250565b7f4552433732313a207472616e7366657220746f206e6f6e20455243373231526560008201527f63656976657220696d706c656d656e7465720000000000000000000000000000602082015250565b7f4f776e61626c653a206e6577206f776e657220697320746865207a65726f206160008201527f6464726573730000000000000000000000000000000000000000000000000000602082015250565b7f4552433732313a207472616e736665722066726f6d20696e636f72726563742060008201527f6f776e6572000000000000000000000000000000000000000000000000000000602082015250565b7f4552433732313a20746f6b656e20616c7265616479206d696e74656400000000600082015250565b7f4552433732313a207472616e7366657220746f20746865207a65726f2061646460008201527f7265737300000000000000000000000000000000000000000000000000000000602082015250565b7f4552433732313a20617070726f766520746f2063616c6c657200000000000000600082015250565b7f4552433732313a206f70657261746f7220717565727920666f72206e6f6e657860008201527f697374656e7420746f6b656e0000000000000000000000000000000000000000602082015250565b7f5061757361626c653a2070617573656400000000000000000000000000000000600082015250565b7f4552433732313a20617070726f76652063616c6c6572206973206e6f74206f7760008201527f6e6572206e6f7220617070726f76656420666f7220616c6c0000000000000000602082015250565b7f4552433732313a2062616c616e636520717565727920666f7220746865207a6560008201527f726f206164647265737300000000000000000000000000000000000000000000602082015250565b7f4552433732313a206f776e657220717565727920666f72206e6f6e657869737460008201527f656e7420746f6b656e0000000000000000000000000000000000000000000000602082015250565b7f4552433732313a206d696e7420746f20746865207a65726f2061646472657373600082015250565b7f4552433732313a20617070726f76656420717565727920666f72206e6f6e657860008201527f697374656e7420746f6b656e0000000000000000000000000000000000000000602082015250565b7f2e6a736f6e000000000000000000000000000000000000000000000000000000600082015250565b7f4f776e61626c653a2063616c6c6572206973206e6f7420746865206f776e6572600082015250565b7f4552433732313a20617070726f76616c20746f2063757272656e74206f776e6560008201527f7200000000000000000000000000000000000000000000000000000000000000602082015250565b7f4552433732313a207472616e736665722063616c6c6572206973206e6f74206f60008201527f776e6572206e6f7220617070726f766564000000000000000000000000000000602082015250565b7f455243373231456e756d657261626c653a20676c6f62616c20696e646578206f60008201527f7574206f6620626f756e64730000000000000000000000000000000000000000602082015250565b61410481613907565b811461410f57600080fd5b50565b61411b81613919565b811461412657600080fd5b50565b61413281613925565b811461413d57600080fd5b50565b61414981613971565b811461415457600080fd5b5056fea264697066735822122020277562c7cea20daddb855ea09652ee6fa7f0c70aad83c41517e480b974934d64736f6c63430008070033697066733a2f2f62616679626569626e6364357568786367326f757733746e61626e726f67336b37663570756a6f64796b6371733535666d7876707a6532716b756d2f",
  "linkReferences": {},
  "deployedLinkReferences": {}
}